{
  "transactions": [
    {
      "hash": "0x1bec5e416a62dcc19d0e6958d685c8825455ed2a6d8cd732082020259c0dc945",
      "transactionType": "CALL",
      "contractName": null,
      "contractAddress": "0x0ee3e3c313cd51e3c3b09e9831c1a84dfe89cc48",
      "function": "approve(address,uint256)",
      "arguments": [
        "0x000000000022D473030F116dDEE9F6B43aC78BA3",
        "115792089237316195423570985008687907853269984665640564039457584007913129639935"
      ],
      "transaction": {
        "from": "0x4b992f2fbf714c0fcbb23bac5130ace48cad00cd",
        "to": "0x0ee3e3c313cd51e3c3b09e9831c1a84dfe89cc48",
        "value": "0x0",
        "input": "0x095ea7b3000000000000000000000000000000000022d473030f116ddee9f6b43ac78ba3ffffffffffffffffffffffffffffffffffffffffffffffffffffffffffffffff",
        "nonce": "0xc0",
        "chainId": "0x515"
      },
      "additionalContracts": [],
      "isFixedGasLimit": false
    },
    {
      "hash": "0xccc56ce0c05e7c04970bd5df56bd44f94aa3f5e364cee5dccdaa59f956b64023",
      "transactionType": "CALL",
      "contractName": null,
      "contractAddress": "0x0ee3e3c313cd51e3c3b09e9831c1a84dfe89cc48",
      "function": "approve(address,uint256)",
      "arguments": [
        "0x9cD2b0a732dd5e023a5539921e0FD1c30E198Dba",
        "115792089237316195423570985008687907853269984665640564039457584007913129639935"
      ],
      "transaction": {
        "from": "0x4b992f2fbf714c0fcbb23bac5130ace48cad00cd",
        "to": "0x0ee3e3c313cd51e3c3b09e9831c1a84dfe89cc48",
        "value": "0x0",
        "input": "0x095ea7b30000000000000000000000009cd2b0a732dd5e023a5539921e0fd1c30e198dbaffffffffffffffffffffffffffffffffffffffffffffffffffffffffffffffff",
        "nonce": "0xc1",
        "chainId": "0x515"
      },
      "additionalContracts": [],
      "isFixedGasLimit": false
    },
    {
      "hash": "0xbcc8190e0128bfba05d6f9051a800fbc123abf5801fa6ed8029bc91166a64602",
      "transactionType": "CALL",
      "contractName": null,
      "contractAddress": "0x000000000022d473030f116ddee9f6b43ac78ba3",
      "function": "approve(address,address,uint160,uint48)",
      "arguments": [
        "0x0ee3E3c313cD51e3C3B09e9831C1a84dFe89CC48",
        "0xf969Aee60879C54bAAed9F3eD26147Db216Fd664",
        "1461501637330902918203684832716283019655932542975",
        "281474976710655"
      ],
      "transaction": {
        "from": "0x4b992f2fbf714c0fcbb23bac5130ace48cad00cd",
        "to": "0x000000000022d473030f116ddee9f6b43ac78ba3",
        "value": "0x0",
        "input": "0x87517c450000000000000000000000000ee3e3c313cd51e3c3b09e9831c1a84dfe89cc48000000000000000000000000f969aee60879c54baaed9f3ed26147db216fd664000000000000000000000000ffffffffffffffffffffffffffffffffffffffff0000000000000000000000000000000000000000000000000000ffffffffffff",
        "nonce": "0xc2",
        "chainId": "0x515"
      },
      "additionalContracts": [],
      "isFixedGasLimit": false
    },
    {
      "hash": "0x88db4c64570d868641ed825df6fc3fd3d5578ca9e3d0ae6de4cf9621ff27ff00",
      "transactionType": "CALL",
      "contractName": null,
      "contractAddress": "0x000000000022d473030f116ddee9f6b43ac78ba3",
      "function": "approve(address,address,uint160,uint48)",
      "arguments": [
        "0x0ee3E3c313cD51e3C3B09e9831C1a84dFe89CC48",
        "0x00B036B58a818B1BC34d502D3fE730Db729e62AC",
        "1461501637330902918203684832716283019655932542975",
        "281474976710655"
      ],
      "transaction": {
        "from": "0x4b992f2fbf714c0fcbb23bac5130ace48cad00cd",
        "to": "0x000000000022d473030f116ddee9f6b43ac78ba3",
        "value": "0x0",
        "input": "0x87517c450000000000000000000000000ee3e3c313cd51e3c3b09e9831c1a84dfe89cc4800000000000000000000000000b036b58a818b1bc34d502d3fe730db729e62ac000000000000000000000000ffffffffffffffffffffffffffffffffffffffff0000000000000000000000000000000000000000000000000000ffffffffffff",
        "nonce": "0xc3",
        "chainId": "0x515"
      },
      "additionalContracts": [],
      "isFixedGasLimit": false
    },
    {
      "hash": "0xedddfc0a6a68eb6a1b191c80473beebdb597e587b19b12b8ab08d280889d78c3",
      "transactionType": "CALL",
      "contractName": null,
      "contractAddress": "0x180896366174318f5bd64d8320576a488400115a",
      "function": "approve(address,uint256)",
      "arguments": [
        "0x000000000022D473030F116dDEE9F6B43aC78BA3",
        "115792089237316195423570985008687907853269984665640564039457584007913129639935"
      ],
      "transaction": {
        "from": "0x4b992f2fbf714c0fcbb23bac5130ace48cad00cd",
        "to": "0x180896366174318f5bd64d8320576a488400115a",
        "value": "0x0",
        "input": "0x095ea7b3000000000000000000000000000000000022d473030f116ddee9f6b43ac78ba3ffffffffffffffffffffffffffffffffffffffffffffffffffffffffffffffff",
        "nonce": "0xc4",
        "chainId": "0x515"
      },
      "additionalContracts": [],
      "isFixedGasLimit": false
    },
    {
      "hash": "0x2eef7893f0243cc874aa9badb49d63bc1f487d9f7844eed10c9f5d9c4ebd5954",
      "transactionType": "CALL",
      "contractName": null,
      "contractAddress": "0x180896366174318f5bd64d8320576a488400115a",
      "function": "approve(address,uint256)",
      "arguments": [
        "0x9cD2b0a732dd5e023a5539921e0FD1c30E198Dba",
        "115792089237316195423570985008687907853269984665640564039457584007913129639935"
      ],
      "transaction": {
        "from": "0x4b992f2fbf714c0fcbb23bac5130ace48cad00cd",
        "to": "0x180896366174318f5bd64d8320576a488400115a",
        "value": "0x0",
        "input": "0x095ea7b30000000000000000000000009cd2b0a732dd5e023a5539921e0fd1c30e198dbaffffffffffffffffffffffffffffffffffffffffffffffffffffffffffffffff",
        "nonce": "0xc5",
        "chainId": "0x515"
      },
      "additionalContracts": [],
      "isFixedGasLimit": false
    },
    {
      "hash": "0x1df940a7b107d90ee3748fb66be91be28a99e131137cacec5ae79eb99c8e0a84",
      "transactionType": "CALL",
      "contractName": null,
      "contractAddress": "0x000000000022d473030f116ddee9f6b43ac78ba3",
      "function": "approve(address,address,uint160,uint48)",
      "arguments": [
        "0x180896366174318f5BD64d8320576A488400115a",
        "0xf969Aee60879C54bAAed9F3eD26147Db216Fd664",
        "1461501637330902918203684832716283019655932542975",
        "281474976710655"
      ],
      "transaction": {
        "from": "0x4b992f2fbf714c0fcbb23bac5130ace48cad00cd",
        "to": "0x000000000022d473030f116ddee9f6b43ac78ba3",
        "value": "0x0",
        "input": "0x87517c45000000000000000000000000180896366174318f5bd64d8320576a488400115a000000000000000000000000f969aee60879c54baaed9f3ed26147db216fd664000000000000000000000000ffffffffffffffffffffffffffffffffffffffff0000000000000000000000000000000000000000000000000000ffffffffffff",
        "nonce": "0xc6",
        "chainId": "0x515"
      },
      "additionalContracts": [],
      "isFixedGasLimit": false
    },
    {
      "hash": "0x0599bc14606a200b45e3170ef8a175a814da6c638c383b6a718887833e995fcb",
      "transactionType": "CALL",
      "contractName": null,
      "contractAddress": "0x000000000022d473030f116ddee9f6b43ac78ba3",
      "function": "approve(address,address,uint160,uint48)",
      "arguments": [
        "0x180896366174318f5BD64d8320576A488400115a",
        "0x00B036B58a818B1BC34d502D3fE730Db729e62AC",
        "1461501637330902918203684832716283019655932542975",
        "281474976710655"
      ],
      "transaction": {
        "from": "0x4b992f2fbf714c0fcbb23bac5130ace48cad00cd",
        "to": "0x000000000022d473030f116ddee9f6b43ac78ba3",
        "value": "0x0",
        "input": "0x87517c45000000000000000000000000180896366174318f5bd64d8320576a488400115a00000000000000000000000000b036b58a818b1bc34d502d3fe730db729e62ac000000000000000000000000ffffffffffffffffffffffffffffffffffffffff0000000000000000000000000000000000000000000000000000ffffffffffff",
        "nonce": "0xc7",
        "chainId": "0x515"
      },
      "additionalContracts": [],
      "isFixedGasLimit": false
    },
    {
      "hash": "0xdd020f37ac6299c136215674f1542a2cea9bb0553cfa2c599230d33ed18835a0",
      "transactionType": "CALL",
      "contractName": null,
      "contractAddress": "0x9cd2b0a732dd5e023a5539921e0fd1c30e198dba",
      "function": "swapExactTokensForTokens(uint256,uint256,bool,(address,address,uint24,int24,address),bytes,address,uint256)",
      "arguments": [
        "100000000000000000",
        "0",
        "true",
        "(0x0ee3E3c313cD51e3C3B09e9831C1a84dFe89CC48, 0x180896366174318f5BD64d8320576A488400115a, 3000, 60, 0x0000000000000000000000000000000000000000)",
        "0x",
        "0x4b992F2Fbf714C0fCBb23baC5130Ace48CaD00cd",
        "115792089237316195423570985008687907853269984665640564039457584007913129639935"
      ],
      "transaction": {
        "from": "0x4b992f2fbf714c0fcbb23bac5130ace48cad00cd",
        "to": "0x9cd2b0a732dd5e023a5539921e0fd1c30e198dba",
        "value": "0x0",
        "input": "0xb1a0d571000000000000000000000000000000000000000000000000016345785d8a0000000000000000000000000000000000000000000000000000000000000000000000000000000000000000000000000000000000000000000000000000000000010000000000000000000000000ee3e3c313cd51e3c3b09e9831c1a84dfe89cc48000000000000000000000000180896366174318f5bd64d8320576a488400115a0000000000000000000000000000000000000000000000000000000000000bb8000000000000000000000000000000000000000000000000000000000000003c000000000000000000000000000000000000000000000000000000000000000000000000000000000000000000000000000000000000000000000000000001600000000000000000000000004b992f2fbf714c0fcbb23bac5130ace48cad00cdffffffffffffffffffffffffffffffffffffffffffffffffffffffffffffffff0000000000000000000000000000000000000000000000000000000000000000",
        "nonce": "0xc8",
        "chainId": "0x515"
      },
      "additionalContracts": [],
      "isFixedGasLimit": false
    },
    {
      "hash": "0x64d06a180eb5647861e181d86ac840be50128af57775d498ee9a9768ad8582ce",
      "transactionType": "CALL",
      "contractName": null,
      "contractAddress": "0x9cd2b0a732dd5e023a5539921e0fd1c30e198dba",
      "function": "swapExactTokensForTokens(uint256,uint256,bool,(address,address,uint24,int24,address),bytes,address,uint256)",
      "arguments": [
        "250000000000000000",
        "0",
        "true",
        "(0x0ee3E3c313cD51e3C3B09e9831C1a84dFe89CC48, 0x180896366174318f5BD64d8320576A488400115a, 3000, 60, 0x0000000000000000000000000000000000000000)",
        "0x",
        "0x4b992F2Fbf714C0fCBb23baC5130Ace48CaD00cd",
        "115792089237316195423570985008687907853269984665640564039457584007913129639935"
      ],
      "transaction": {
        "from": "0x4b992f2fbf714c0fcbb23bac5130ace48cad00cd",
        "to": "0x9cd2b0a732dd5e023a5539921e0fd1c30e198dba",
        "value": "0x0",
        "input": "0xb1a0d57100000000000000000000000000000000000000000000000003782dace9d90000000000000000000000000000000000000000000000000000000000000000000000000000000000000000000000000000000000000000000000000000000000010000000000000000000000000ee3e3c313cd51e3c3b09e9831c1a84dfe89cc48000000000000000000000000180896366174318f5bd64d8320576a488400115a0000000000000000000000000000000000000000000000000000000000000bb8000000000000000000000000000000000000000000000000000000000000003c000000000000000000000000000000000000000000000000000000000000000000000000000000000000000000000000000000000000000000000000000001600000000000000000000000004b992f2fbf714c0fcbb23bac5130ace48cad00cdffffffffffffffffffffffffffffffffffffffffffffffffffffffffffffffff0000000000000000000000000000000000000000000000000000000000000000",
        "nonce": "0xc9",
        "chainId": "0x515"
      },
      "additionalContracts": [],
      "isFixedGasLimit": false
    },
    {
      "hash": "0x3fef10486fb608aba8f1c8a10b89d232e59a7e6cd22af96c5ea754bd458b97ba",
      "transactionType": "CALL",
      "contractName": null,
      "contractAddress": "0x9cd2b0a732dd5e023a5539921e0fd1c30e198dba",
      "function": "swapExactTokensForTokens(uint256,uint256,bool,(address,address,uint24,int24,address),bytes,address,uint256)",
      "arguments": [
        "500000000000000000",
        "0",
        "true",
        "(0x0ee3E3c313cD51e3C3B09e9831C1a84dFe89CC48, 0x180896366174318f5BD64d8320576A488400115a, 3000, 60, 0x0000000000000000000000000000000000000000)",
        "0x",
        "0x4b992F2Fbf714C0fCBb23baC5130Ace48CaD00cd",
        "115792089237316195423570985008687907853269984665640564039457584007913129639935"
      ],
      "transaction": {
        "from": "0x4b992f2fbf714c0fcbb23bac5130ace48cad00cd",
        "to": "0x9cd2b0a732dd5e023a5539921e0fd1c30e198dba",
        "value": "0x0",
        "input": "0xb1a0d57100000000000000000000000000000000000000000000000006f05b59d3b20000000000000000000000000000000000000000000000000000000000000000000000000000000000000000000000000000000000000000000000000000000000010000000000000000000000000ee3e3c313cd51e3c3b09e9831c1a84dfe89cc48000000000000000000000000180896366174318f5bd64d8320576a488400115a0000000000000000000000000000000000000000000000000000000000000bb8000000000000000000000000000000000000000000000000000000000000003c000000000000000000000000000000000000000000000000000000000000000000000000000000000000000000000000000000000000000000000000000001600000000000000000000000004b992f2fbf714c0fcbb23bac5130ace48cad00cdffffffffffffffffffffffffffffffffffffffffffffffffffffffffffffffff0000000000000000000000000000000000000000000000000000000000000000",
        "nonce": "0xca",
        "chainId": "0x515"
      },
      "additionalContracts": [],
      "isFixedGasLimit": false
    },
    {
      "hash": "0xa742dc62fabb943175d92648056b5c1769bccdce768f3722fdb6e260dff2f414",
      "transactionType": "CALL",
      "contractName": null,
      "contractAddress": "0x9cd2b0a732dd5e023a5539921e0fd1c30e198dba",
      "function": "swapExactTokensForTokens(uint256,uint256,bool,(address,address,uint24,int24,address),bytes,address,uint256)",
      "arguments": [
        "750000000000000000",
        "0",
        "true",
        "(0x0ee3E3c313cD51e3C3B09e9831C1a84dFe89CC48, 0x180896366174318f5BD64d8320576A488400115a, 3000, 60, 0x0000000000000000000000000000000000000000)",
        "0x",
        "0x4b992F2Fbf714C0fCBb23baC5130Ace48CaD00cd",
        "115792089237316195423570985008687907853269984665640564039457584007913129639935"
      ],
      "transaction": {
        "from": "0x4b992f2fbf714c0fcbb23bac5130ace48cad00cd",
        "to": "0x9cd2b0a732dd5e023a5539921e0fd1c30e198dba",
        "value": "0x0",
        "input": "0xb1a0d5710000000000000000000000000000000000000000000000000a688906bd8b0000000000000000000000000000000000000000000000000000000000000000000000000000000000000000000000000000000000000000000000000000000000010000000000000000000000000ee3e3c313cd51e3c3b09e9831c1a84dfe89cc48000000000000000000000000180896366174318f5bd64d8320576a488400115a0000000000000000000000000000000000000000000000000000000000000bb8000000000000000000000000000000000000000000000000000000000000003c000000000000000000000000000000000000000000000000000000000000000000000000000000000000000000000000000000000000000000000000000001600000000000000000000000004b992f2fbf714c0fcbb23bac5130ace48cad00cdffffffffffffffffffffffffffffffffffffffffffffffffffffffffffffffff0000000000000000000000000000000000000000000000000000000000000000",
        "nonce": "0xcb",
        "chainId": "0x515"
      },
      "additionalContracts": [],
      "isFixedGasLimit": false
    },
    {
      "hash": "0xdfc182afa947c24dd54f1d617b5a486f3da588b2fde86f7178138024366115c3",
      "transactionType": "CALL",
      "contractName": null,
      "contractAddress": "0x9cd2b0a732dd5e023a5539921e0fd1c30e198dba",
      "function": "swapExactTokensForTokens(uint256,uint256,bool,(address,address,uint24,int24,address),bytes,address,uint256)",
      "arguments": [
        "1000000000000000000",
        "0",
        "true",
        "(0x0ee3E3c313cD51e3C3B09e9831C1a84dFe89CC48, 0x180896366174318f5BD64d8320576A488400115a, 3000, 60, 0x0000000000000000000000000000000000000000)",
        "0x",
        "0x4b992F2Fbf714C0fCBb23baC5130Ace48CaD00cd",
        "115792089237316195423570985008687907853269984665640564039457584007913129639935"
      ],
      "transaction": {
        "from": "0x4b992f2fbf714c0fcbb23bac5130ace48cad00cd",
        "to": "0x9cd2b0a732dd5e023a5539921e0fd1c30e198dba",
        "value": "0x0",
        "input": "0xb1a0d5710000000000000000000000000000000000000000000000000de0b6b3a7640000000000000000000000000000000000000000000000000000000000000000000000000000000000000000000000000000000000000000000000000000000000010000000000000000000000000ee3e3c313cd51e3c3b09e9831c1a84dfe89cc48000000000000000000000000180896366174318f5bd64d8320576a488400115a0000000000000000000000000000000000000000000000000000000000000bb8000000000000000000000000000000000000000000000000000000000000003c000000000000000000000000000000000000000000000000000000000000000000000000000000000000000000000000000000000000000000000000000001600000000000000000000000004b992f2fbf714c0fcbb23bac5130ace48cad00cdffffffffffffffffffffffffffffffffffffffffffffffffffffffffffffffff0000000000000000000000000000000000000000000000000000000000000000",
        "nonce": "0xcc",
        "chainId": "0x515"
      },
      "additionalContracts": [],
      "isFixedGasLimit": false
    },
    {
      "hash": "0xd4e4f4ea083fcb5c4db2aac5dcdc758839d8ff05a8ed73c784821ecb6222fa98",
      "transactionType": "CALL",
      "contractName": null,
      "contractAddress": "0x9cd2b0a732dd5e023a5539921e0fd1c30e198dba",
      "function": "swapExactTokensForTokens(uint256,uint256,bool,(address,address,uint24,int24,address),bytes,address,uint256)",
      "arguments": [
        "2000000000000000000",
        "0",
        "true",
        "(0x0ee3E3c313cD51e3C3B09e9831C1a84dFe89CC48, 0x180896366174318f5BD64d8320576A488400115a, 3000, 60, 0x0000000000000000000000000000000000000000)",
        "0x",
        "0x4b992F2Fbf714C0fCBb23baC5130Ace48CaD00cd",
        "115792089237316195423570985008687907853269984665640564039457584007913129639935"
      ],
      "transaction": {
        "from": "0x4b992f2fbf714c0fcbb23bac5130ace48cad00cd",
        "to": "0x9cd2b0a732dd5e023a5539921e0fd1c30e198dba",
        "value": "0x0",
        "input": "0xb1a0d5710000000000000000000000000000000000000000000000001bc16d674ec80000000000000000000000000000000000000000000000000000000000000000000000000000000000000000000000000000000000000000000000000000000000010000000000000000000000000ee3e3c313cd51e3c3b09e9831c1a84dfe89cc48000000000000000000000000180896366174318f5bd64d8320576a488400115a0000000000000000000000000000000000000000000000000000000000000bb8000000000000000000000000000000000000000000000000000000000000003c000000000000000000000000000000000000000000000000000000000000000000000000000000000000000000000000000000000000000000000000000001600000000000000000000000004b992f2fbf714c0fcbb23bac5130ace48cad00cdffffffffffffffffffffffffffffffffffffffffffffffffffffffffffffffff0000000000000000000000000000000000000000000000000000000000000000",
        "nonce": "0xcd",
        "chainId": "0x515"
      },
      "additionalContracts": [],
      "isFixedGasLimit": false
    },
    {
      "hash": "0xb5dc08d2cb6b2eb664d70e9b53a9e95555b85f6e9a97a7b7878506b5326b67cd",
      "transactionType": "CALL",
      "contractName": null,
      "contractAddress": "0x9cd2b0a732dd5e023a5539921e0fd1c30e198dba",
      "function": "swapExactTokensForTokens(uint256,uint256,bool,(address,address,uint24,int24,address),bytes,address,uint256)",
      "arguments": [
        "100000000000000000",
        "0",
        "true",
        "(0x0ee3E3c313cD51e3C3B09e9831C1a84dFe89CC48, 0x180896366174318f5BD64d8320576A488400115a, 3000, 60, 0x9146Bf7b6e8Ef3508AE74ec9C0d3E2d042D080C0)",
        "0x",
        "0x4b992F2Fbf714C0fCBb23baC5130Ace48CaD00cd",
        "115792089237316195423570985008687907853269984665640564039457584007913129639935"
      ],
      "transaction": {
        "from": "0x4b992f2fbf714c0fcbb23bac5130ace48cad00cd",
        "to": "0x9cd2b0a732dd5e023a5539921e0fd1c30e198dba",
        "value": "0x0",
        "input": "0xb1a0d571000000000000000000000000000000000000000000000000016345785d8a0000000000000000000000000000000000000000000000000000000000000000000000000000000000000000000000000000000000000000000000000000000000010000000000000000000000000ee3e3c313cd51e3c3b09e9831c1a84dfe89cc48000000000000000000000000180896366174318f5bd64d8320576a488400115a0000000000000000000000000000000000000000000000000000000000000bb8000000000000000000000000000000000000000000000000000000000000003c0000000000000000000000009146bf7b6e8ef3508ae74ec9c0d3e2d042d080c000000000000000000000000000000000000000000000000000000000000001600000000000000000000000004b992f2fbf714c0fcbb23bac5130ace48cad00cdffffffffffffffffffffffffffffffffffffffffffffffffffffffffffffffff0000000000000000000000000000000000000000000000000000000000000000",
        "nonce": "0xce",
        "chainId": "0x515"
      },
      "additionalContracts": [],
      "isFixedGasLimit": false
    },
    {
      "hash": "0x6ed262119a90cc07db6f4eac8d5cf5f081ffc1185718adf8fb21371d1f07f864",
      "transactionType": "CALL",
      "contractName": null,
      "contractAddress": "0x9cd2b0a732dd5e023a5539921e0fd1c30e198dba",
      "function": "swapExactTokensForTokens(uint256,uint256,bool,(address,address,uint24,int24,address),bytes,address,uint256)",
      "arguments": [
        "250000000000000000",
        "0",
        "true",
        "(0x0ee3E3c313cD51e3C3B09e9831C1a84dFe89CC48, 0x180896366174318f5BD64d8320576A488400115a, 3000, 60, 0x9146Bf7b6e8Ef3508AE74ec9C0d3E2d042D080C0)",
        "0x",
        "0x4b992F2Fbf714C0fCBb23baC5130Ace48CaD00cd",
        "115792089237316195423570985008687907853269984665640564039457584007913129639935"
      ],
      "transaction": {
        "from": "0x4b992f2fbf714c0fcbb23bac5130ace48cad00cd",
        "to": "0x9cd2b0a732dd5e023a5539921e0fd1c30e198dba",
        "value": "0x0",
        "input": "0xb1a0d57100000000000000000000000000000000000000000000000003782dace9d90000000000000000000000000000000000000000000000000000000000000000000000000000000000000000000000000000000000000000000000000000000000010000000000000000000000000ee3e3c313cd51e3c3b09e9831c1a84dfe89cc48000000000000000000000000180896366174318f5bd64d8320576a488400115a0000000000000000000000000000000000000000000000000000000000000bb8000000000000000000000000000000000000000000000000000000000000003c0000000000000000000000009146bf7b6e8ef3508ae74ec9c0d3e2d042d080c000000000000000000000000000000000000000000000000000000000000001600000000000000000000000004b992f2fbf714c0fcbb23bac5130ace48cad00cdffffffffffffffffffffffffffffffffffffffffffffffffffffffffffffffff0000000000000000000000000000000000000000000000000000000000000000",
        "nonce": "0xcf",
        "chainId": "0x515"
      },
      "additionalContracts": [],
      "isFixedGasLimit": false
    },
    {
      "hash": "0x5d4702438ea61459d3eb1a3739418312b913cedf42a706af307fa4d08f86ff34",
      "transactionType": "CALL",
      "contractName": null,
      "contractAddress": "0x9cd2b0a732dd5e023a5539921e0fd1c30e198dba",
      "function": "swapExactTokensForTokens(uint256,uint256,bool,(address,address,uint24,int24,address),bytes,address,uint256)",
      "arguments": [
        "500000000000000000",
        "0",
        "true",
        "(0x0ee3E3c313cD51e3C3B09e9831C1a84dFe89CC48, 0x180896366174318f5BD64d8320576A488400115a, 3000, 60, 0x9146Bf7b6e8Ef3508AE74ec9C0d3E2d042D080C0)",
        "0x",
        "0x4b992F2Fbf714C0fCBb23baC5130Ace48CaD00cd",
        "115792089237316195423570985008687907853269984665640564039457584007913129639935"
      ],
      "transaction": {
        "from": "0x4b992f2fbf714c0fcbb23bac5130ace48cad00cd",
        "to": "0x9cd2b0a732dd5e023a5539921e0fd1c30e198dba",
        "value": "0x0",
        "input": "0xb1a0d57100000000000000000000000000000000000000000000000006f05b59d3b20000000000000000000000000000000000000000000000000000000000000000000000000000000000000000000000000000000000000000000000000000000000010000000000000000000000000ee3e3c313cd51e3c3b09e9831c1a84dfe89cc48000000000000000000000000180896366174318f5bd64d8320576a488400115a0000000000000000000000000000000000000000000000000000000000000bb8000000000000000000000000000000000000000000000000000000000000003c0000000000000000000000009146bf7b6e8ef3508ae74ec9c0d3e2d042d080c000000000000000000000000000000000000000000000000000000000000001600000000000000000000000004b992f2fbf714c0fcbb23bac5130ace48cad00cdffffffffffffffffffffffffffffffffffffffffffffffffffffffffffffffff0000000000000000000000000000000000000000000000000000000000000000",
        "nonce": "0xd0",
        "chainId": "0x515"
      },
      "additionalContracts": [],
      "isFixedGasLimit": false
    },
    {
      "hash": "0x7fe0e6e8011e3a59901793e548682250a78b9c7e6140aa4615c49a2847dcc12a",
      "transactionType": "CALL",
      "contractName": null,
      "contractAddress": "0x9cd2b0a732dd5e023a5539921e0fd1c30e198dba",
      "function": "swapExactTokensForTokens(uint256,uint256,bool,(address,address,uint24,int24,address),bytes,address,uint256)",
      "arguments": [
        "750000000000000000",
        "0",
        "true",
        "(0x0ee3E3c313cD51e3C3B09e9831C1a84dFe89CC48, 0x180896366174318f5BD64d8320576A488400115a, 3000, 60, 0x9146Bf7b6e8Ef3508AE74ec9C0d3E2d042D080C0)",
        "0x",
        "0x4b992F2Fbf714C0fCBb23baC5130Ace48CaD00cd",
        "115792089237316195423570985008687907853269984665640564039457584007913129639935"
      ],
      "transaction": {
        "from": "0x4b992f2fbf714c0fcbb23bac5130ace48cad00cd",
        "to": "0x9cd2b0a732dd5e023a5539921e0fd1c30e198dba",
        "value": "0x0",
        "input": "0xb1a0d5710000000000000000000000000000000000000000000000000a688906bd8b0000000000000000000000000000000000000000000000000000000000000000000000000000000000000000000000000000000000000000000000000000000000010000000000000000000000000ee3e3c313cd51e3c3b09e9831c1a84dfe89cc48000000000000000000000000180896366174318f5bd64d8320576a488400115a0000000000000000000000000000000000000000000000000000000000000bb8000000000000000000000000000000000000000000000000000000000000003c0000000000000000000000009146bf7b6e8ef3508ae74ec9c0d3e2d042d080c000000000000000000000000000000000000000000000000000000000000001600000000000000000000000004b992f2fbf714c0fcbb23bac5130ace48cad00cdffffffffffffffffffffffffffffffffffffffffffffffffffffffffffffffff0000000000000000000000000000000000000000000000000000000000000000",
        "nonce": "0xd1",
        "chainId": "0x515"
      },
      "additionalContracts": [],
      "isFixedGasLimit": false
    },
    {
      "hash": "0xe200523b98cefad694e751e404e0bfbdaec449eb329b5b316f96531ee32a79c1",
      "transactionType": "CALL",
      "contractName": null,
      "contractAddress": "0x9cd2b0a732dd5e023a5539921e0fd1c30e198dba",
      "function": "swapExactTokensForTokens(uint256,uint256,bool,(address,address,uint24,int24,address),bytes,address,uint256)",
      "arguments": [
        "1000000000000000000",
        "0",
        "true",
        "(0x0ee3E3c313cD51e3C3B09e9831C1a84dFe89CC48, 0x180896366174318f5BD64d8320576A488400115a, 3000, 60, 0x9146Bf7b6e8Ef3508AE74ec9C0d3E2d042D080C0)",
        "0x",
        "0x4b992F2Fbf714C0fCBb23baC5130Ace48CaD00cd",
        "115792089237316195423570985008687907853269984665640564039457584007913129639935"
      ],
      "transaction": {
        "from": "0x4b992f2fbf714c0fcbb23bac5130ace48cad00cd",
        "to": "0x9cd2b0a732dd5e023a5539921e0fd1c30e198dba",
        "value": "0x0",
        "input": "0xb1a0d5710000000000000000000000000000000000000000000000000de0b6b3a7640000000000000000000000000000000000000000000000000000000000000000000000000000000000000000000000000000000000000000000000000000000000010000000000000000000000000ee3e3c313cd51e3c3b09e9831c1a84dfe89cc48000000000000000000000000180896366174318f5bd64d8320576a488400115a0000000000000000000000000000000000000000000000000000000000000bb8000000000000000000000000000000000000000000000000000000000000003c0000000000000000000000009146bf7b6e8ef3508ae74ec9c0d3e2d042d080c000000000000000000000000000000000000000000000000000000000000001600000000000000000000000004b992f2fbf714c0fcbb23bac5130ace48cad00cdffffffffffffffffffffffffffffffffffffffffffffffffffffffffffffffff0000000000000000000000000000000000000000000000000000000000000000",
        "nonce": "0xd2",
        "chainId": "0x515"
      },
      "additionalContracts": [],
      "isFixedGasLimit": false
    },
    {
      "hash": "0xbe3c913b3a5e1f1cddc5997f022b83d05e9c1f6cb3c87fe50ae00ca1b8de900c",
      "transactionType": "CALL",
      "contractName": null,
      "contractAddress": "0x9cd2b0a732dd5e023a5539921e0fd1c30e198dba",
      "function": "swapExactTokensForTokens(uint256,uint256,bool,(address,address,uint24,int24,address),bytes,address,uint256)",
      "arguments": [
        "2000000000000000000",
        "0",
        "true",
        "(0x0ee3E3c313cD51e3C3B09e9831C1a84dFe89CC48, 0x180896366174318f5BD64d8320576A488400115a, 3000, 60, 0x9146Bf7b6e8Ef3508AE74ec9C0d3E2d042D080C0)",
        "0x",
        "0x4b992F2Fbf714C0fCBb23baC5130Ace48CaD00cd",
        "115792089237316195423570985008687907853269984665640564039457584007913129639935"
      ],
      "transaction": {
        "from": "0x4b992f2fbf714c0fcbb23bac5130ace48cad00cd",
        "to": "0x9cd2b0a732dd5e023a5539921e0fd1c30e198dba",
        "value": "0x0",
        "input": "0xb1a0d5710000000000000000000000000000000000000000000000001bc16d674ec80000000000000000000000000000000000000000000000000000000000000000000000000000000000000000000000000000000000000000000000000000000000010000000000000000000000000ee3e3c313cd51e3c3b09e9831c1a84dfe89cc48000000000000000000000000180896366174318f5bd64d8320576a488400115a0000000000000000000000000000000000000000000000000000000000000bb8000000000000000000000000000000000000000000000000000000000000003c0000000000000000000000009146bf7b6e8ef3508ae74ec9c0d3e2d042d080c000000000000000000000000000000000000000000000000000000000000001600000000000000000000000004b992f2fbf714c0fcbb23bac5130ace48cad00cdffffffffffffffffffffffffffffffffffffffffffffffffffffffffffffffff0000000000000000000000000000000000000000000000000000000000000000",
        "nonce": "0xd3",
        "chainId": "0x515"
      },
      "additionalContracts": [],
      "isFixedGasLimit": false
    }
  ],
  "receipts": [
    {
      "status": "0x1",
      "cumulativeGasUsed": "0x2e29d",
      "logs": [
        {
          "address": "0x0ee3e3c313cd51e3c3b09e9831c1a84dfe89cc48",
          "topics": [
            "0x8c5be1e5ebec7d5bd14f71427d1e84f3dd0314c0f7b2291e5b200ac8c7c3b925",
            "0x0000000000000000000000004b992f2fbf714c0fcbb23bac5130ace48cad00cd",
            "0x000000000000000000000000000000000022d473030f116ddee9f6b43ac78ba3"
          ],
          "data": "0xffffffffffffffffffffffffffffffffffffffffffffffffffffffffffffffff",
          "blockHash": "0x1310fa006ac970fff1b9471ed96899af29a0be436bdc9a555c5a4918ea5b7e3e",
          "blockNumber": "0x2be2ac8",
          "blockTimestamp": "0x69abd814",
          "transactionHash": "0x1bec5e416a62dcc19d0e6958d685c8825455ed2a6d8cd732082020259c0dc945",
          "transactionIndex": "0x3",
          "logIndex": "0x1",
          "removed": false
        }
      ],
      "logsBloom": "0x00000000000000000002000000000000000000000000000000000000000000000000000000000000000000000000000000000002800000000000000000200000000000000000000000004000000000000000000000000800000100000000000000000000000000000000000000020000000000000000000000000000000000000000000080000000000000100000000000000000000000000000000000000000020000000000000000000000000000000000000000000000000000000000000000000000000000000000000000000000000000000000000000000000000000000010000000000000000000000000000000000000000000000000000000000000",
      "type": "0x2",
      "transactionHash": "0x1bec5e416a62dcc19d0e6958d685c8825455ed2a6d8cd732082020259c0dc945",
      "transactionIndex": "0x3",
      "blockHash": "0x1310fa006ac970fff1b9471ed96899af29a0be436bdc9a555c5a4918ea5b7e3e",
      "blockNumber": "0x2be2ac8",
      "gasUsed": "0x6875",
      "effectiveGasPrice": "0x7a121",
      "blobGasUsed": "0x9c40",
      "from": "0x4b992f2fbf714c0fcbb23bac5130ace48cad00cd",
      "to": "0x0ee3e3c313cd51e3c3b09e9831c1a84dfe89cc48",
      "contractAddress": null,
      "daFootprintGasScalar": "0x190",
      "l1BaseFeeScalar": "0x7d0",
      "l1BlobBaseFee": "0x3f913",
      "l1BlobBaseFeeScalar": "0xdbba0",
      "l1Fee": "0x27635e1",
      "l1GasPrice": "0x5533a0",
      "l1GasUsed": "0x640"
    },
    {
      "status": "0x1",
      "cumulativeGasUsed": "0x2e2d9",
      "logs": [
        {
          "address": "0x0ee3e3c313cd51e3c3b09e9831c1a84dfe89cc48",
          "topics": [
            "0x8c5be1e5ebec7d5bd14f71427d1e84f3dd0314c0f7b2291e5b200ac8c7c3b925",
            "0x0000000000000000000000004b992f2fbf714c0fcbb23bac5130ace48cad00cd",
            "0x0000000000000000000000009cd2b0a732dd5e023a5539921e0fd1c30e198dba"
          ],
          "data": "0xffffffffffffffffffffffffffffffffffffffffffffffffffffffffffffffff",
          "blockHash": "0x3bcc0ae5346377072bb46e37dd66d30386d0d11aa242fa0c8456dad0993c2449",
          "blockNumber": "0x2be2acc",
          "blockTimestamp": "0x69abd818",
          "transactionHash": "0xccc56ce0c05e7c04970bd5df56bd44f94aa3f5e364cee5dccdaa59f956b64023",
          "transactionIndex": "0x3",
          "logIndex": "0x1",
          "removed": false
        }
      ],
      "logsBloom": "0x00000000000000000002000000000000000000004000000000000000000000000080000000000000000000000000000000000002000000000000000000200000000000000000000000000000000000000000000000000000000100000000000000000000000000000000000000020000000000000000000000000000000000000000000080000000000000100000000000000000000000000000000000000000020000000000000000000000000000000000080000000000000000000000000000000000000000000000000000000000000000000000000000000000000000000010000000000000000000000000000000000000000000000000000000000000",
      "type": "0x2",
      "transactionHash": "0xccc56ce0c05e7c04970bd5df56bd44f94aa3f5e364cee5dccdaa59f956b64023",
      "transactionIndex": "0x3",
      "blockHash": "0x3bcc0ae5346377072bb46e37dd66d30386d0d11aa242fa0c8456dad0993c2449",
      "blockNumber": "0x2be2acc",
      "gasUsed": "0x68b1",
      "effectiveGasPrice": "0x7a121",
      "blobGasUsed": "0x9c40",
      "from": "0x4b992f2fbf714c0fcbb23bac5130ace48cad00cd",
      "to": "0x0ee3e3c313cd51e3c3b09e9831c1a84dfe89cc48",
      "contractAddress": null,
      "daFootprintGasScalar": "0x190",
      "l1BaseFeeScalar": "0x7d0",
      "l1BlobBaseFee": "0x3f913",
      "l1BlobBaseFeeScalar": "0xdbba0",
      "l1Fee": "0x27635e1",
      "l1GasPrice": "0x5533a0",
      "l1GasUsed": "0x640"
    },
    {
      "status": "0x1",
      "cumulativeGasUsed": "0x5c78e",
      "logs": [
        {
          "address": "0x000000000022d473030f116ddee9f6b43ac78ba3",
          "topics": [
            "0xda9fa7c1b00402c17d0161b249b1ab8bbec047c5a52207b9c112deffd817036b",
            "0x0000000000000000000000004b992f2fbf714c0fcbb23bac5130ace48cad00cd",
            "0x0000000000000000000000000ee3e3c313cd51e3c3b09e9831c1a84dfe89cc48",
            "0x000000000000000000000000f969aee60879c54baaed9f3ed26147db216fd664"
          ],
          "data": "0x000000000000000000000000ffffffffffffffffffffffffffffffffffffffff0000000000000000000000000000000000000000000000000000ffffffffffff",
          "blockHash": "0xf4f96f6185e8e07405ae9d83891666b670d9dcd0c36dcf6b6428059cf4cdcdee",
          "blockNumber": "0x2be2ace",
          "blockTimestamp": "0x69abd81a",
          "transactionHash": "0xbcc8190e0128bfba05d6f9051a800fbc123abf5801fa6ed8029bc91166a64602",
          "transactionIndex": "0x5",
          "logIndex": "0x3",
          "removed": false
        }
      ],
      "logsBloom": "0x00010000000000000000000000000000000000000000000000000000000000000000000000000000000000000000000000000002000000000000000000080000000000000000000000000000000000000000000000000000800100001000000000000000000000000000000000020000000000000040000000000000000000000020000000000000000000000000000000000000000000000000000000000000000000000000000000000000000000000000000000000000000000080000000000000000000080000000000000000000000000000000000040000000000000000008000000000000000000000000000000000000000000000000000000002400",
      "type": "0x2",
      "transactionHash": "0xbcc8190e0128bfba05d6f9051a800fbc123abf5801fa6ed8029bc91166a64602",
      "transactionIndex": "0x5",
      "blockHash": "0xf4f96f6185e8e07405ae9d83891666b670d9dcd0c36dcf6b6428059cf4cdcdee",
      "blockNumber": "0x2be2ace",
      "gasUsed": "0x6d0e",
      "effectiveGasPrice": "0x7a121",
      "blobGasUsed": "0xa8c0",
      "from": "0x4b992f2fbf714c0fcbb23bac5130ace48cad00cd",
      "to": "0x000000000022d473030f116ddee9f6b43ac78ba3",
      "contractAddress": null,
      "daFootprintGasScalar": "0x190",
      "l1BaseFeeScalar": "0x7d0",
      "l1BlobBaseFee": "0x3f913",
      "l1BlobBaseFeeScalar": "0xdbba0",
      "l1Fee": "0x2adccfa",
      "l1GasPrice": "0x5533a0",
      "l1GasUsed": "0x6cd"
    },
    {
      "status": "0x1",
      "cumulativeGasUsed": "0x45750",
      "logs": [
        {
          "address": "0x000000000022d473030f116ddee9f6b43ac78ba3",
          "topics": [
            "0xda9fa7c1b00402c17d0161b249b1ab8bbec047c5a52207b9c112deffd817036b",
            "0x0000000000000000000000004b992f2fbf714c0fcbb23bac5130ace48cad00cd",
            "0x0000000000000000000000000ee3e3c313cd51e3c3b09e9831c1a84dfe89cc48",
            "0x00000000000000000000000000b036b58a818b1bc34d502d3fe730db729e62ac"
          ],
          "data": "0x000000000000000000000000ffffffffffffffffffffffffffffffffffffffff0000000000000000000000000000000000000000000000000000ffffffffffff",
          "blockHash": "0x7aa423f30053fd6f50fbfd47526434690ddcf3f98c5d65881010da129b7aee07",
          "blockNumber": "0x2be2ad0",
          "blockTimestamp": "0x69abd81c",
          "transactionHash": "0x88db4c64570d868641ed825df6fc3fd3d5578ca9e3d0ae6de4cf9621ff27ff00",
          "transactionIndex": "0x4",
          "logIndex": "0x2",
          "removed": false
        }
      ],
      "logsBloom": "0x00010000000000000000000000000000000000000000000000000000000000000000000000000000000000000000000000000002001000000000000000080000000000000000000000000000000000000000000000000000800100000000000000000000000000000000000000024000000000000000000000000000000000000020000000000000000000000000000000000000000000000000000000000000000000000000000000000000000000000000000000000020000000080000000000000000000080000000000000000000000000000000000040000000000000000008000000000000000000000000000000000000000000000000000000000400",
      "type": "0x2",
      "transactionHash": "0x88db4c64570d868641ed825df6fc3fd3d5578ca9e3d0ae6de4cf9621ff27ff00",
      "transactionIndex": "0x4",
      "blockHash": "0x7aa423f30053fd6f50fbfd47526434690ddcf3f98c5d65881010da129b7aee07",
      "blockNumber": "0x2be2ad0",
      "gasUsed": "0x6d02",
      "effectiveGasPrice": "0x7a121",
      "blobGasUsed": "0xa730",
      "from": "0x4b992f2fbf714c0fcbb23bac5130ace48cad00cd",
      "to": "0x000000000022d473030f116ddee9f6b43ac78ba3",
      "contractAddress": null,
      "daFootprintGasScalar": "0x190",
      "l1BaseFeeScalar": "0x7d0",
      "l1BlobBaseFee": "0x3f913",
      "l1BlobBaseFeeScalar": "0xdbba0",
      "l1Fee": "0x2a8876c",
      "l1GasPrice": "0x5533a0",
      "l1GasUsed": "0x6bf"
    },
    {
      "status": "0x1",
      "cumulativeGasUsed": "0x2e29d",
      "logs": [
        {
          "address": "0x180896366174318f5bd64d8320576a488400115a",
          "topics": [
            "0x8c5be1e5ebec7d5bd14f71427d1e84f3dd0314c0f7b2291e5b200ac8c7c3b925",
            "0x0000000000000000000000004b992f2fbf714c0fcbb23bac5130ace48cad00cd",
            "0x000000000000000000000000000000000022d473030f116ddee9f6b43ac78ba3"
          ],
          "data": "0xffffffffffffffffffffffffffffffffffffffffffffffffffffffffffffffff",
          "blockHash": "0x1e8f1a87853d5b4f4287eeae40278a2f271077ef9e3edf9e56ecde26b4866671",
          "blockNumber": "0x2be2ad3",
          "blockTimestamp": "0x69abd81f",
          "transactionHash": "0xedddfc0a6a68eb6a1b191c80473beebdb597e587b19b12b8ab08d280889d78c3",
          "transactionIndex": "0x3",
          "logIndex": "0x1",
          "removed": false
        }
      ],
      "logsBloom": "0x00000000000000000000000000000000000000000000000000000000000000000000000000000000000000000000000400000002800000000000000000200000000000000000000000004000000000000000000000000800000100010000000000000000000000000000000000020000000000000000000000000000000000000000000000000000000000000000000000000000000000000000000000000000020000000000000000000000000000000000000000000000000000000000000000000008000000000000000000000000000000000000000000000000000000000010000000000000000000000000000000000000000000000000000000000000",
      "type": "0x2",
      "transactionHash": "0xedddfc0a6a68eb6a1b191c80473beebdb597e587b19b12b8ab08d280889d78c3",
      "transactionIndex": "0x3",
      "blockHash": "0x1e8f1a87853d5b4f4287eeae40278a2f271077ef9e3edf9e56ecde26b4866671",
      "blockNumber": "0x2be2ad3",
      "gasUsed": "0x6875",
      "effectiveGasPrice": "0x7a121",
      "blobGasUsed": "0x9c40",
      "from": "0x4b992f2fbf714c0fcbb23bac5130ace48cad00cd",
      "to": "0x180896366174318f5bd64d8320576a488400115a",
      "contractAddress": null,
      "daFootprintGasScalar": "0x190",
      "l1BaseFeeScalar": "0x7d0",
      "l1BlobBaseFee": "0x3f913",
      "l1BlobBaseFeeScalar": "0xdbba0",
      "l1Fee": "0x27635e1",
      "l1GasPrice": "0x5533a0",
      "l1GasUsed": "0x640"
    },
    {
      "status": "0x1",
      "cumulativeGasUsed": "0x7336f",
      "logs": [
        {
          "address": "0x180896366174318f5bd64d8320576a488400115a",
          "topics": [
            "0x8c5be1e5ebec7d5bd14f71427d1e84f3dd0314c0f7b2291e5b200ac8c7c3b925",
            "0x0000000000000000000000004b992f2fbf714c0fcbb23bac5130ace48cad00cd",
            "0x0000000000000000000000009cd2b0a732dd5e023a5539921e0fd1c30e198dba"
          ],
          "data": "0xffffffffffffffffffffffffffffffffffffffffffffffffffffffffffffffff",
          "blockHash": "0x2c5258be301ad67a73b64323a157b57edcf8e246f0465ba2e03744fab2696e9a",
          "blockNumber": "0x2be2ad6",
          "blockTimestamp": "0x69abd822",
          "transactionHash": "0x2eef7893f0243cc874aa9badb49d63bc1f487d9f7844eed10c9f5d9c4ebd5954",
          "transactionIndex": "0x6",
          "logIndex": "0x4",
          "removed": false
        }
      ],
      "logsBloom": "0x00000000000000000000000000000000000000004000000000000000000000000080000000000000000000000000000400000002000000000000000000200000000000000000000000000000000000000000000000000000000100010000000000000000000000000000000000020000000000000000000000000000000000000000000000000000000000000000000000000000000000000000000000000000020000000000000000000000000000000000080000000000000000000000000000000008000000000000000000000000000000000000000000000000000000000010000000000000000000000000000000000000000000000000000000000000",
      "type": "0x2",
      "transactionHash": "0x2eef7893f0243cc874aa9badb49d63bc1f487d9f7844eed10c9f5d9c4ebd5954",
      "transactionIndex": "0x6",
      "blockHash": "0x2c5258be301ad67a73b64323a157b57edcf8e246f0465ba2e03744fab2696e9a",
      "blockNumber": "0x2be2ad6",
      "gasUsed": "0x68b1",
      "effectiveGasPrice": "0x7a121",
      "blobGasUsed": "0x9c40",
      "from": "0x4b992f2fbf714c0fcbb23bac5130ace48cad00cd",
      "to": "0x180896366174318f5bd64d8320576a488400115a",
      "contractAddress": null,
      "daFootprintGasScalar": "0x190",
      "l1BaseFeeScalar": "0x7d0",
      "l1BlobBaseFee": "0x3f913",
      "l1BlobBaseFeeScalar": "0xdbba0",
      "l1Fee": "0x27635e1",
      "l1GasPrice": "0x5533a0",
      "l1GasUsed": "0x640"
    },
    {
      "status": "0x1",
      "cumulativeGasUsed": "0x45750",
      "logs": [
        {
          "address": "0x000000000022d473030f116ddee9f6b43ac78ba3",
          "topics": [
            "0xda9fa7c1b00402c17d0161b249b1ab8bbec047c5a52207b9c112deffd817036b",
            "0x0000000000000000000000004b992f2fbf714c0fcbb23bac5130ace48cad00cd",
            "0x000000000000000000000000180896366174318f5bd64d8320576a488400115a",
            "0x000000000000000000000000f969aee60879c54baaed9f3ed26147db216fd664"
          ],
          "data": "0x000000000000000000000000ffffffffffffffffffffffffffffffffffffffff0000000000000000000000000000000000000000000000000000ffffffffffff",
          "blockHash": "0xcdc5ac22e0c9783cde894914f21e70f66e433cab65b526e3df1483d27a15dfe9",
          "blockNumber": "0x2be2ad9",
          "blockTimestamp": "0x69abd825",
          "transactionHash": "0x1df940a7b107d90ee3748fb66be91be28a99e131137cacec5ae79eb99c8e0a84",
          "transactionIndex": "0x4",
          "logIndex": "0x2",
          "removed": false
        }
      ],
      "logsBloom": "0x00010000000000000000000000000000000000000010000000000000000000000000000000000000000000000000000000000002000000000000000000080000000000000000000000000000000000000000000000000000000100001000000000000000000000000000200000020000000000000040000000000000004000000020000000000000000000000000000000000000000000000000000000000000000000000000000000000000000000000000000000000000000000080000000000000000000000000000000000000000000000000000000040000000000000000000000000000000000000000000000000000000000000000000000000002400",
      "type": "0x2",
      "transactionHash": "0x1df940a7b107d90ee3748fb66be91be28a99e131137cacec5ae79eb99c8e0a84",
      "transactionIndex": "0x4",
      "blockHash": "0xcdc5ac22e0c9783cde894914f21e70f66e433cab65b526e3df1483d27a15dfe9",
      "blockNumber": "0x2be2ad9",
      "gasUsed": "0x6d02",
      "effectiveGasPrice": "0x7a121",
      "blobGasUsed": "0xa8c0",
      "from": "0x4b992f2fbf714c0fcbb23bac5130ace48cad00cd",
      "to": "0x000000000022d473030f116ddee9f6b43ac78ba3",
      "contractAddress": null,
      "daFootprintGasScalar": "0x190",
      "l1BaseFeeScalar": "0x7d0",
      "l1BlobBaseFee": "0x41026",
      "l1BlobBaseFeeScalar": "0xdbba0",
      "l1Fee": "0x2cab220",
      "l1GasPrice": "0x5af6e5",
      "l1GasUsed": "0x6cd"
    },
    {
      "status": "0x1",
      "cumulativeGasUsed": "0x737b4",
      "logs": [
        {
          "address": "0x000000000022d473030f116ddee9f6b43ac78ba3",
          "topics": [
            "0xda9fa7c1b00402c17d0161b249b1ab8bbec047c5a52207b9c112deffd817036b",
            "0x0000000000000000000000004b992f2fbf714c0fcbb23bac5130ace48cad00cd",
            "0x000000000000000000000000180896366174318f5bd64d8320576a488400115a",
            "0x00000000000000000000000000b036b58a818b1bc34d502d3fe730db729e62ac"
          ],
          "data": "0x000000000000000000000000ffffffffffffffffffffffffffffffffffffffff0000000000000000000000000000000000000000000000000000ffffffffffff",
          "blockHash": "0x8cd4c90a9184feca5aac5d2388c42b1720f594cc0814e00a2e8877b29f963d82",
          "blockNumber": "0x2be2add",
          "blockTimestamp": "0x69abd829",
          "transactionHash": "0x0599bc14606a200b45e3170ef8a175a814da6c638c383b6a718887833e995fcb",
          "transactionIndex": "0x6",
          "logIndex": "0x4",
          "removed": false
        }
      ],
      "logsBloom": "0x00010000000000000000000000000000000000000010000000000000000000000000000000000000000000000000000000000002001000000000000000080000000000000000000000000000000000000000000000000000000100000000000000000000000000000000200000024000000000000000000000000000004000000020000000000000000000000000000000000000000000000000000000000000000000000000000000000000000000000000000000000020000000080000000000000000000000000000000000000000000000000000000040000000000000000000000000000000000000000000000000000000000000000000000000000400",
      "type": "0x2",
      "transactionHash": "0x0599bc14606a200b45e3170ef8a175a814da6c638c383b6a718887833e995fcb",
      "transactionIndex": "0x6",
      "blockHash": "0x8cd4c90a9184feca5aac5d2388c42b1720f594cc0814e00a2e8877b29f963d82",
      "blockNumber": "0x2be2add",
      "gasUsed": "0x6cf6",
      "effectiveGasPrice": "0x7a121",
      "blobGasUsed": "0xa730",
      "from": "0x4b992f2fbf714c0fcbb23bac5130ace48cad00cd",
      "to": "0x000000000022d473030f116ddee9f6b43ac78ba3",
      "contractAddress": null,
      "daFootprintGasScalar": "0x190",
      "l1BaseFeeScalar": "0x7d0",
      "l1BlobBaseFee": "0x41026",
      "l1BlobBaseFeeScalar": "0xdbba0",
      "l1Fee": "0x2c533b5",
      "l1GasPrice": "0x5af6e5",
      "l1GasUsed": "0x6bf"
    },
    {
      "status": "0x1",
      "cumulativeGasUsed": "0x41564",
      "logs": [
        {
          "address": "0x00b036b58a818b1bc34d502d3fe730db729e62ac",
          "topics": [
            "0x40e9cecb9f5f1f1c5b9c97dec2917b7ee92e57ba5563708daca94dd84ad7112f",
            "0x4c87f1b7fa59b86146d88e5995c8fe5b299030246e9f0ed76c8e04714854dd8e",
            "0x0000000000000000000000009cd2b0a732dd5e023a5539921e0fd1c30e198dba"
          ],
          "data": "0xfffffffffffffffffffffffffffffffffffffffffffffffffe9cba87a2760000000000000000000000000000000000000000000000000000013c76dc0c1935080000000000000000000000000000000000000000f1d5b73db029973ba0b1124d000000000000000000000000000000000000000000000004563918244f400000fffffffffffffffffffffffffffffffffffffffffffffffffffffffffffffb8d0000000000000000000000000000000000000000000000000000000000000bb8",
          "blockHash": "0x81677c8eca922a5f1010c39d4bef71a735159f711a724da171e0e889c74fe966",
          "blockNumber": "0x2be2ae0",
          "blockTimestamp": "0x69abd82c",
          "transactionHash": "0xdd020f37ac6299c136215674f1542a2cea9bb0553cfa2c599230d33ed18835a0",
          "transactionIndex": "0x3",
          "logIndex": "0x1",
          "removed": false
        },
        {
          "address": "0x0ee3e3c313cd51e3c3b09e9831c1a84dfe89cc48",
          "topics": [
            "0xddf252ad1be2c89b69c2b068fc378daa952ba7f163c4a11628f55a4df523b3ef",
            "0x0000000000000000000000004b992f2fbf714c0fcbb23bac5130ace48cad00cd",
            "0x00000000000000000000000000b036b58a818b1bc34d502d3fe730db729e62ac"
          ],
          "data": "0x000000000000000000000000000000000000000000000000016345785d8a0000",
          "blockHash": "0x81677c8eca922a5f1010c39d4bef71a735159f711a724da171e0e889c74fe966",
          "blockNumber": "0x2be2ae0",
          "blockTimestamp": "0x69abd82c",
          "transactionHash": "0xdd020f37ac6299c136215674f1542a2cea9bb0553cfa2c599230d33ed18835a0",
          "transactionIndex": "0x3",
          "logIndex": "0x2",
          "removed": false
        },
        {
          "address": "0x180896366174318f5bd64d8320576a488400115a",
          "topics": [
            "0xddf252ad1be2c89b69c2b068fc378daa952ba7f163c4a11628f55a4df523b3ef",
            "0x00000000000000000000000000b036b58a818b1bc34d502d3fe730db729e62ac",
            "0x0000000000000000000000004b992f2fbf714c0fcbb23bac5130ace48cad00cd"
          ],
          "data": "0x000000000000000000000000000000000000000000000000013c76dc0c193508",
          "blockHash": "0x81677c8eca922a5f1010c39d4bef71a735159f711a724da171e0e889c74fe966",
          "blockNumber": "0x2be2ae0",
          "blockTimestamp": "0x69abd82c",
          "transactionHash": "0xdd020f37ac6299c136215674f1542a2cea9bb0553cfa2c599230d33ed18835a0",
          "transactionIndex": "0x3",
          "logIndex": "0x3",
          "removed": false
        }
      ],
      "logsBloom": "0x0000000000000000000200000000000000001000400000000000000000000000008000000000000000000000000000040000000204100000000000000000000000000000000000000000400800000000000000000000002000010001000000000000000000008000000000000002400000000000000000000000001000000000000000008000000000000010000800000000000000000000000000000000000000000000000000000000000000000000000008000000002000000000000000000000000a000000000000000000000000000000000000000000000000000000000000000000000000004000000000000000000000000002000000000000000010",
      "type": "0x2",
      "transactionHash": "0xdd020f37ac6299c136215674f1542a2cea9bb0553cfa2c599230d33ed18835a0",
      "transactionIndex": "0x3",
      "blockHash": "0x81677c8eca922a5f1010c39d4bef71a735159f711a724da171e0e889c74fe966",
      "blockNumber": "0x2be2ae0",
      "gasUsed": "0x19b3c",
      "effectiveGasPrice": "0x7a121",
      "blobGasUsed": "0x10040",
      "from": "0x4b992f2fbf714c0fcbb23bac5130ace48cad00cd",
      "to": "0x9cd2b0a732dd5e023a5539921e0fd1c30e198dba",
      "contractAddress": null,
      "daFootprintGasScalar": "0x190",
      "l1BaseFeeScalar": "0x7d0",
      "l1BlobBaseFee": "0x41026",
      "l1BlobBaseFeeScalar": "0xdbba0",
      "l1Fee": "0x43549cd",
      "l1GasPrice": "0x5af6e5",
      "l1GasUsed": "0xa40"
    },
    {
      "status": "0x1",
      "cumulativeGasUsed": "0x44419",
      "logs": [
        {
          "address": "0x00b036b58a818b1bc34d502d3fe730db729e62ac",
          "topics": [
            "0x40e9cecb9f5f1f1c5b9c97dec2917b7ee92e57ba5563708daca94dd84ad7112f",
            "0x4c87f1b7fa59b86146d88e5995c8fe5b299030246e9f0ed76c8e04714854dd8e",
            "0x0000000000000000000000009cd2b0a732dd5e023a5539921e0fd1c30e198dba"
          ],
          "data": "0xfffffffffffffffffffffffffffffffffffffffffffffffffc87d253162700000000000000000000000000000000000000000000000000000313e90a1b8678f40000000000000000000000000000000000000000f1200939b6f3e0959bc6f92d000000000000000000000000000000000000000000000004563918244f400000fffffffffffffffffffffffffffffffffffffffffffffffffffffffffffffb520000000000000000000000000000000000000000000000000000000000000bb8",
          "blockHash": "0xa49dd190c99cd4de8b8b58aedd9cc345fad11d081b0bc6bf692ea784ac356b15",
          "blockNumber": "0x2be2ae4",
          "blockTimestamp": "0x69abd830",
          "transactionHash": "0x64d06a180eb5647861e181d86ac840be50128af57775d498ee9a9768ad8582ce",
          "transactionIndex": "0x3",
          "logIndex": "0x1",
          "removed": false
        },
        {
          "address": "0x0ee3e3c313cd51e3c3b09e9831c1a84dfe89cc48",
          "topics": [
            "0xddf252ad1be2c89b69c2b068fc378daa952ba7f163c4a11628f55a4df523b3ef",
            "0x0000000000000000000000004b992f2fbf714c0fcbb23bac5130ace48cad00cd",
            "0x00000000000000000000000000b036b58a818b1bc34d502d3fe730db729e62ac"
          ],
          "data": "0x00000000000000000000000000000000000000000000000003782dace9d90000",
          "blockHash": "0xa49dd190c99cd4de8b8b58aedd9cc345fad11d081b0bc6bf692ea784ac356b15",
          "blockNumber": "0x2be2ae4",
          "blockTimestamp": "0x69abd830",
          "transactionHash": "0x64d06a180eb5647861e181d86ac840be50128af57775d498ee9a9768ad8582ce",
          "transactionIndex": "0x3",
          "logIndex": "0x2",
          "removed": false
        },
        {
          "address": "0x180896366174318f5bd64d8320576a488400115a",
          "topics": [
            "0xddf252ad1be2c89b69c2b068fc378daa952ba7f163c4a11628f55a4df523b3ef",
            "0x00000000000000000000000000b036b58a818b1bc34d502d3fe730db729e62ac",
            "0x0000000000000000000000004b992f2fbf714c0fcbb23bac5130ace48cad00cd"
          ],
          "data": "0x0000000000000000000000000000000000000000000000000313e90a1b8678f4",
          "blockHash": "0xa49dd190c99cd4de8b8b58aedd9cc345fad11d081b0bc6bf692ea784ac356b15",
          "blockNumber": "0x2be2ae4",
          "blockTimestamp": "0x69abd830",
          "transactionHash": "0x64d06a180eb5647861e181d86ac840be50128af57775d498ee9a9768ad8582ce",
          "transactionIndex": "0x3",
          "logIndex": "0x3",
          "removed": false
        }
      ],
      "logsBloom": "0x0000000000000000000200000000000000001000400000000000000000000000008000000000000000000000000000040000000204100000000000000000000000000000000000000000400800000000000000000000002000010001000000000000000000008000000000000002400000000000000000000000001000000000000000008000000000000010000800000000000000000000000000000000000000000000000000000000000000000000000008000000002000000000000000000000000a000000000000000000000000000000000000000000000000000000000000000000000000004000000000000000000000000002000000000000000010",
      "type": "0x2",
      "transactionHash": "0x64d06a180eb5647861e181d86ac840be50128af57775d498ee9a9768ad8582ce",
      "transactionIndex": "0x3",
      "blockHash": "0xa49dd190c99cd4de8b8b58aedd9cc345fad11d081b0bc6bf692ea784ac356b15",
      "blockNumber": "0x2be2ae4",
      "gasUsed": "0x19e3d",
      "effectiveGasPrice": "0x7a121",
      "blobGasUsed": "0x10040",
      "from": "0x4b992f2fbf714c0fcbb23bac5130ace48cad00cd",
      "to": "0x9cd2b0a732dd5e023a5539921e0fd1c30e198dba",
      "contractAddress": null,
      "daFootprintGasScalar": "0x190",
      "l1BaseFeeScalar": "0x7d0",
      "l1BlobBaseFee": "0x423c7",
      "l1BlobBaseFeeScalar": "0xdbba0",
      "l1Fee": "0x439c9de",
      "l1GasPrice": "0x59aa51",
      "l1GasUsed": "0xa40"
    },
    {
      "status": "0x1",
      "cumulativeGasUsed": "0x5858a",
      "logs": [
        {
          "address": "0x00b036b58a818b1bc34d502d3fe730db729e62ac",
          "topics": [
            "0x40e9cecb9f5f1f1c5b9c97dec2917b7ee92e57ba5563708daca94dd84ad7112f",
            "0x4c87f1b7fa59b86146d88e5995c8fe5b299030246e9f0ed76c8e04714854dd8e",
            "0x0000000000000000000000009cd2b0a732dd5e023a5539921e0fd1c30e198dba"
          ],
          "data": "0xfffffffffffffffffffffffffffffffffffffffffffffffff90fa4a62c4e0000000000000000000000000000000000000000000000000000061a074526fea4a70000000000000000000000000000000000000000efb7db57ef262581627ec965000000000000000000000000000000000000000000000004563918244f400000fffffffffffffffffffffffffffffffffffffffffffffffffffffffffffffadd0000000000000000000000000000000000000000000000000000000000000bb8",
          "blockHash": "0xcb1f5fe79d1a106eda3c041e61077d334d9521fd53ce2069408a60978fc9fc6f",
          "blockNumber": "0x2be2ae8",
          "blockTimestamp": "0x69abd834",
          "transactionHash": "0x3fef10486fb608aba8f1c8a10b89d232e59a7e6cd22af96c5ea754bd458b97ba",
          "transactionIndex": "0x4",
          "logIndex": "0x2",
          "removed": false
        },
        {
          "address": "0x0ee3e3c313cd51e3c3b09e9831c1a84dfe89cc48",
          "topics": [
            "0xddf252ad1be2c89b69c2b068fc378daa952ba7f163c4a11628f55a4df523b3ef",
            "0x0000000000000000000000004b992f2fbf714c0fcbb23bac5130ace48cad00cd",
            "0x00000000000000000000000000b036b58a818b1bc34d502d3fe730db729e62ac"
          ],
          "data": "0x00000000000000000000000000000000000000000000000006f05b59d3b20000",
          "blockHash": "0xcb1f5fe79d1a106eda3c041e61077d334d9521fd53ce2069408a60978fc9fc6f",
          "blockNumber": "0x2be2ae8",
          "blockTimestamp": "0x69abd834",
          "transactionHash": "0x3fef10486fb608aba8f1c8a10b89d232e59a7e6cd22af96c5ea754bd458b97ba",
          "transactionIndex": "0x4",
          "logIndex": "0x3",
          "removed": false
        },
        {
          "address": "0x180896366174318f5bd64d8320576a488400115a",
          "topics": [
            "0xddf252ad1be2c89b69c2b068fc378daa952ba7f163c4a11628f55a4df523b3ef",
            "0x00000000000000000000000000b036b58a818b1bc34d502d3fe730db729e62ac",
            "0x0000000000000000000000004b992f2fbf714c0fcbb23bac5130ace48cad00cd"
          ],
          "data": "0x000000000000000000000000000000000000000000000000061a074526fea4a7",
          "blockHash": "0xcb1f5fe79d1a106eda3c041e61077d334d9521fd53ce2069408a60978fc9fc6f",
          "blockNumber": "0x2be2ae8",
          "blockTimestamp": "0x69abd834",
          "transactionHash": "0x3fef10486fb608aba8f1c8a10b89d232e59a7e6cd22af96c5ea754bd458b97ba",
          "transactionIndex": "0x4",
          "logIndex": "0x4",
          "removed": false
        }
      ],
      "logsBloom": "0x0000000000000000000200000000000000001000400000000000000000000000008000000000000000000000000000040000000204100000000000000000000000000000000000000000400800000000000000000000002000010001000000000000000000008000000000000002400000000000000000000000001000000000000000008000000000000010000800000000000000000000000000000000000000000000000000000000000000000000000008000000002000000000000000000000000a000000000000000000000000000000000000000000000000000000000000000000000000004000000000000000000000000002000000000000000010",
      "type": "0x2",
      "transactionHash": "0x3fef10486fb608aba8f1c8a10b89d232e59a7e6cd22af96c5ea754bd458b97ba",
      "transactionIndex": "0x4",
      "blockHash": "0xcb1f5fe79d1a106eda3c041e61077d334d9521fd53ce2069408a60978fc9fc6f",
      "blockNumber": "0x2be2ae8",
      "gasUsed": "0x19b3c",
      "effectiveGasPrice": "0x7a121",
      "blobGasUsed": "0x10040",
      "from": "0x4b992f2fbf714c0fcbb23bac5130ace48cad00cd",
      "to": "0x9cd2b0a732dd5e023a5539921e0fd1c30e198dba",
      "contractAddress": null,
      "daFootprintGasScalar": "0x190",
      "l1BaseFeeScalar": "0x7d0",
      "l1BlobBaseFee": "0x423c7",
      "l1BlobBaseFeeScalar": "0xdbba0",
      "l1Fee": "0x439c9de",
      "l1GasPrice": "0x59aa51",
      "l1GasUsed": "0xa40"
    },
    {
      "status": "0x1",
      "cumulativeGasUsed": "0x868f7",
      "logs": [
        {
          "address": "0x00b036b58a818b1bc34d502d3fe730db729e62ac",
          "topics": [
            "0x40e9cecb9f5f1f1c5b9c97dec2917b7ee92e57ba5563708daca94dd84ad7112f",
            "0x4c87f1b7fa59b86146d88e5995c8fe5b299030246e9f0ed76c8e04714854dd8e",
            "0x0000000000000000000000009cd2b0a732dd5e023a5539921e0fd1c30e198dba"
          ],
          "data": "0xfffffffffffffffffffffffffffffffffffffffffffffffff59776f9427500000000000000000000000000000000000000000000000000000905290ecc9925db0000000000000000000000000000000000000000eda36692d71b4acb2e925eab000000000000000000000000000000000000000000000004563918244f400000fffffffffffffffffffffffffffffffffffffffffffffffffffffffffffffa2f0000000000000000000000000000000000000000000000000000000000000bb8",
          "blockHash": "0xa44ca0e41861d3f7b13c4af75a065f8392139673e3863e2468995f2ef00769a6",
          "blockNumber": "0x2be2aeb",
          "blockTimestamp": "0x69abd837",
          "transactionHash": "0xa742dc62fabb943175d92648056b5c1769bccdce768f3722fdb6e260dff2f414",
          "transactionIndex": "0x6",
          "logIndex": "0x4",
          "removed": false
        },
        {
          "address": "0x0ee3e3c313cd51e3c3b09e9831c1a84dfe89cc48",
          "topics": [
            "0xddf252ad1be2c89b69c2b068fc378daa952ba7f163c4a11628f55a4df523b3ef",
            "0x0000000000000000000000004b992f2fbf714c0fcbb23bac5130ace48cad00cd",
            "0x00000000000000000000000000b036b58a818b1bc34d502d3fe730db729e62ac"
          ],
          "data": "0x0000000000000000000000000000000000000000000000000a688906bd8b0000",
          "blockHash": "0xa44ca0e41861d3f7b13c4af75a065f8392139673e3863e2468995f2ef00769a6",
          "blockNumber": "0x2be2aeb",
          "blockTimestamp": "0x69abd837",
          "transactionHash": "0xa742dc62fabb943175d92648056b5c1769bccdce768f3722fdb6e260dff2f414",
          "transactionIndex": "0x6",
          "logIndex": "0x5",
          "removed": false
        },
        {
          "address": "0x180896366174318f5bd64d8320576a488400115a",
          "topics": [
            "0xddf252ad1be2c89b69c2b068fc378daa952ba7f163c4a11628f55a4df523b3ef",
            "0x00000000000000000000000000b036b58a818b1bc34d502d3fe730db729e62ac",
            "0x0000000000000000000000004b992f2fbf714c0fcbb23bac5130ace48cad00cd"
          ],
          "data": "0x0000000000000000000000000000000000000000000000000905290ecc9925db",
          "blockHash": "0xa44ca0e41861d3f7b13c4af75a065f8392139673e3863e2468995f2ef00769a6",
          "blockNumber": "0x2be2aeb",
          "blockTimestamp": "0x69abd837",
          "transactionHash": "0xa742dc62fabb943175d92648056b5c1769bccdce768f3722fdb6e260dff2f414",
          "transactionIndex": "0x6",
          "logIndex": "0x6",
          "removed": false
        }
      ],
      "logsBloom": "0x0000000000000000000200000000000000001000400000000000000000000000008000000000000000000000000000040000000204100000000000000000000000000000000000000000400800000000000000000000002000010001000000000000000000008000000000000002400000000000000000000000001000000000000000008000000000000010000800000000000000000000000000000000000000000000000000000000000000000000000008000000002000000000000000000000000a000000000000000000000000000000000000000000000000000000000000000000000000004000000000000000000000000002000000000000000010",
      "type": "0x2",
      "transactionHash": "0xa742dc62fabb943175d92648056b5c1769bccdce768f3722fdb6e260dff2f414",
      "transactionIndex": "0x6",
      "blockHash": "0xa44ca0e41861d3f7b13c4af75a065f8392139673e3863e2468995f2ef00769a6",
      "blockNumber": "0x2be2aeb",
      "gasUsed": "0x19e39",
      "effectiveGasPrice": "0x7a121",
      "blobGasUsed": "0x10040",
      "from": "0x4b992f2fbf714c0fcbb23bac5130ace48cad00cd",
      "to": "0x9cd2b0a732dd5e023a5539921e0fd1c30e198dba",
      "contractAddress": null,
      "daFootprintGasScalar": "0x190",
      "l1BaseFeeScalar": "0x7d0",
      "l1BlobBaseFee": "0x423c7",
      "l1BlobBaseFeeScalar": "0xdbba0",
      "l1Fee": "0x439c9de",
      "l1GasPrice": "0x59aa51",
      "l1GasUsed": "0xa40"
    },
    {
      "status": "0x1",
      "cumulativeGasUsed": "0x76ff4",
      "logs": [
        {
          "address": "0x00b036b58a818b1bc34d502d3fe730db729e62ac",
          "topics": [
            "0x40e9cecb9f5f1f1c5b9c97dec2917b7ee92e57ba5563708daca94dd84ad7112f",
            "0x4c87f1b7fa59b86146d88e5995c8fe5b299030246e9f0ed76c8e04714854dd8e",
            "0x0000000000000000000000009cd2b0a732dd5e023a5539921e0fd1c30e198dba"
          ],
          "data": "0xfffffffffffffffffffffffffffffffffffffffffffffffff21f494c589c00000000000000000000000000000000000000000000000000000bc942db05ef9d5c0000000000000000000000000000000000000000eaebaae969922a4cbfa12137000000000000000000000000000000000000000000000004563918244f400000fffffffffffffffffffffffffffffffffffffffffffffffffffffffffffff9490000000000000000000000000000000000000000000000000000000000000bb8",
          "blockHash": "0xa9cdce46f99f64d1fc5121a93674b14c8fa724d4164abafba9372d959f76c148",
          "blockNumber": "0x2be2aed",
          "blockTimestamp": "0x69abd839",
          "transactionHash": "0xdfc182afa947c24dd54f1d617b5a486f3da588b2fde86f7178138024366115c3",
          "transactionIndex": "0x6",
          "logIndex": "0x4",
          "removed": false
        },
        {
          "address": "0x0ee3e3c313cd51e3c3b09e9831c1a84dfe89cc48",
          "topics": [
            "0xddf252ad1be2c89b69c2b068fc378daa952ba7f163c4a11628f55a4df523b3ef",
            "0x0000000000000000000000004b992f2fbf714c0fcbb23bac5130ace48cad00cd",
            "0x00000000000000000000000000b036b58a818b1bc34d502d3fe730db729e62ac"
          ],
          "data": "0x0000000000000000000000000000000000000000000000000de0b6b3a7640000",
          "blockHash": "0xa9cdce46f99f64d1fc5121a93674b14c8fa724d4164abafba9372d959f76c148",
          "blockNumber": "0x2be2aed",
          "blockTimestamp": "0x69abd839",
          "transactionHash": "0xdfc182afa947c24dd54f1d617b5a486f3da588b2fde86f7178138024366115c3",
          "transactionIndex": "0x6",
          "logIndex": "0x5",
          "removed": false
        },
        {
          "address": "0x180896366174318f5bd64d8320576a488400115a",
          "topics": [
            "0xddf252ad1be2c89b69c2b068fc378daa952ba7f163c4a11628f55a4df523b3ef",
            "0x00000000000000000000000000b036b58a818b1bc34d502d3fe730db729e62ac",
            "0x0000000000000000000000004b992f2fbf714c0fcbb23bac5130ace48cad00cd"
          ],
          "data": "0x0000000000000000000000000000000000000000000000000bc942db05ef9d5c",
          "blockHash": "0xa9cdce46f99f64d1fc5121a93674b14c8fa724d4164abafba9372d959f76c148",
          "blockNumber": "0x2be2aed",
          "blockTimestamp": "0x69abd839",
          "transactionHash": "0xdfc182afa947c24dd54f1d617b5a486f3da588b2fde86f7178138024366115c3",
          "transactionIndex": "0x6",
          "logIndex": "0x6",
          "removed": false
        }
      ],
      "logsBloom": "0x0000000000000000000200000000000000001000400000000000000000000000008000000000000000000000000000040000000204100000000000000000000000000000000000000000400800000000000000000000002000010001000000000000000000008000000000000002400000000000000000000000001000000000000000008000000000000010000800000000000000000000000000000000000000000000000000000000000000000000000008000000002000000000000000000000000a000000000000000000000000000000000000000000000000000000000000000000000000004000000000000000000000000002000000000000000010",
      "type": "0x2",
      "transactionHash": "0xdfc182afa947c24dd54f1d617b5a486f3da588b2fde86f7178138024366115c3",
      "transactionIndex": "0x6",
      "blockHash": "0xa9cdce46f99f64d1fc5121a93674b14c8fa724d4164abafba9372d959f76c148",
      "blockNumber": "0x2be2aed",
      "gasUsed": "0x19e79",
      "effectiveGasPrice": "0x7a121",
      "blobGasUsed": "0x10040",
      "from": "0x4b992f2fbf714c0fcbb23bac5130ace48cad00cd",
      "to": "0x9cd2b0a732dd5e023a5539921e0fd1c30e198dba",
      "contractAddress": null,
      "daFootprintGasScalar": "0x190",
      "l1BaseFeeScalar": "0x7d0",
      "l1BlobBaseFee": "0x423c7",
      "l1BlobBaseFeeScalar": "0xdbba0",
      "l1Fee": "0x439c9de",
      "l1GasPrice": "0x59aa51",
      "l1GasUsed": "0xa40"
    },
    {
      "status": "0x1",
      "cumulativeGasUsed": "0x41879",
      "logs": [
        {
          "address": "0x00b036b58a818b1bc34d502d3fe730db729e62ac",
          "topics": [
            "0x40e9cecb9f5f1f1c5b9c97dec2917b7ee92e57ba5563708daca94dd84ad7112f",
            "0x4c87f1b7fa59b86146d88e5995c8fe5b299030246e9f0ed76c8e04714854dd8e",
            "0x0000000000000000000000009cd2b0a732dd5e023a5539921e0fd1c30e198dba"
          ],
          "data": "0xffffffffffffffffffffffffffffffffffffffffffffffffe43e9298b138000000000000000000000000000000000000000000000000000016c81d1f484db2d20000000000000000000000000000000000000000e5aadfae17656f0cca949b3e000000000000000000000000000000000000000000000004563918244f400000fffffffffffffffffffffffffffffffffffffffffffffffffffffffffffff7840000000000000000000000000000000000000000000000000000000000000bb8",
          "blockHash": "0x352644ec989c9970bffca69f4c3849c6013439d772e8729131b2cd7f0eafd7a0",
          "blockNumber": "0x2be2aef",
          "blockTimestamp": "0x69abd83b",
          "transactionHash": "0xd4e4f4ea083fcb5c4db2aac5dcdc758839d8ff05a8ed73c784821ecb6222fa98",
          "transactionIndex": "0x3",
          "logIndex": "0x1",
          "removed": false
        },
        {
          "address": "0x0ee3e3c313cd51e3c3b09e9831c1a84dfe89cc48",
          "topics": [
            "0xddf252ad1be2c89b69c2b068fc378daa952ba7f163c4a11628f55a4df523b3ef",
            "0x0000000000000000000000004b992f2fbf714c0fcbb23bac5130ace48cad00cd",
            "0x00000000000000000000000000b036b58a818b1bc34d502d3fe730db729e62ac"
          ],
          "data": "0x0000000000000000000000000000000000000000000000001bc16d674ec80000",
          "blockHash": "0x352644ec989c9970bffca69f4c3849c6013439d772e8729131b2cd7f0eafd7a0",
          "blockNumber": "0x2be2aef",
          "blockTimestamp": "0x69abd83b",
          "transactionHash": "0xd4e4f4ea083fcb5c4db2aac5dcdc758839d8ff05a8ed73c784821ecb6222fa98",
          "transactionIndex": "0x3",
          "logIndex": "0x2",
          "removed": false
        },
        {
          "address": "0x180896366174318f5bd64d8320576a488400115a",
          "topics": [
            "0xddf252ad1be2c89b69c2b068fc378daa952ba7f163c4a11628f55a4df523b3ef",
            "0x00000000000000000000000000b036b58a818b1bc34d502d3fe730db729e62ac",
            "0x0000000000000000000000004b992f2fbf714c0fcbb23bac5130ace48cad00cd"
          ],
          "data": "0x00000000000000000000000000000000000000000000000016c81d1f484db2d2",
          "blockHash": "0x352644ec989c9970bffca69f4c3849c6013439d772e8729131b2cd7f0eafd7a0",
          "blockNumber": "0x2be2aef",
          "blockTimestamp": "0x69abd83b",
          "transactionHash": "0xd4e4f4ea083fcb5c4db2aac5dcdc758839d8ff05a8ed73c784821ecb6222fa98",
          "transactionIndex": "0x3",
          "logIndex": "0x3",
          "removed": false
        }
      ],
      "logsBloom": "0x0000000000000000000200000000000000001000400000000000000000000000008000000000000000000000000000040000000204100000000000000000000000000000000000000000400800000000000000000000002000010001000000000000000000008000000000000002400000000000000000000000001000000000000000008000000000000010000800000000000000000000000000000000000000000000000000000000000000000000000008000000002000000000000000000000000a000000000000000000000000000000000000000000000000000000000000000000000000004000000000000000000000000002000000000000000010",
      "type": "0x2",
      "transactionHash": "0xd4e4f4ea083fcb5c4db2aac5dcdc758839d8ff05a8ed73c784821ecb6222fa98",
      "transactionIndex": "0x3",
      "blockHash": "0x352644ec989c9970bffca69f4c3849c6013439d772e8729131b2cd7f0eafd7a0",
      "blockNumber": "0x2be2aef",
      "gasUsed": "0x19e5d",
      "effectiveGasPrice": "0x7a121",
      "blobGasUsed": "0x10040",
      "from": "0x4b992f2fbf714c0fcbb23bac5130ace48cad00cd",
      "to": "0x9cd2b0a732dd5e023a5539921e0fd1c30e198dba",
      "contractAddress": null,
      "daFootprintGasScalar": "0x190",
      "l1BaseFeeScalar": "0x7d0",
      "l1BlobBaseFee": "0x423c7",
      "l1BlobBaseFeeScalar": "0xdbba0",
      "l1Fee": "0x439c9de",
      "l1GasPrice": "0x59aa51",
      "l1GasUsed": "0xa40"
    },
    {
      "status": "0x1",
      "cumulativeGasUsed": "0x6e210",
      "logs": [
        {
          "address": "0x9146bf7b6e8ef3508ae74ec9c0d3e2d042d080c0",
          "topics": [
            "0x8a2aada980fd130ab9983cba87ddda45955dd701ce544eea6d5af3101d9fc5df",
            "0x6306d23fb9166d9dbfd141be059ed4a0a700dcbfba401736f09cc998b23cb2f3",
            "0x0000000000000000000000009cd2b0a732dd5e023a5539921e0fd1c30e198dba"
          ],
          "data": "0x0000000000000000000000000000000000000000000000000000000000000002000000000000000000000000000000000000000000000000016345785d8a0000000000000000000000000000000000000000000000000000000000000000270f00000000000000000000000000000000000000000000000029a2241af62c00000000000000000000000000000000000000000000000000000000000000002710",
          "blockHash": "0x5a86355cb61e2b8f303f0c025125f813e989e2c940c96e72e25338c419cef43a",
          "blockNumber": "0x2be2af4",
          "blockTimestamp": "0x69abd840",
          "transactionHash": "0xb5dc08d2cb6b2eb664d70e9b53a9e95555b85f6e9a97a7b7878506b5326b67cd",
          "transactionIndex": "0x4",
          "logIndex": "0x2",
          "removed": false
        },
        {
          "address": "0x034e2bf5c2c91788e7e85170644c4fb79073888d",
          "topics": [
            "0x4f5c2d00887d0161c4eaef5a7bafe851adfdb55c54b1db5e8a66aee75ae667ff",
            "0x6306d23fb9166d9dbfd141be059ed4a0a700dcbfba401736f09cc998b23cb2f3"
          ],
          "data": "0x000000000000000000000000000000000000000000000000000000000000000000000000000000000000000000000000000000000000000000000000000000000000000000000000000000000000000000000000000000000000000000000000",
          "blockHash": "0x5a86355cb61e2b8f303f0c025125f813e989e2c940c96e72e25338c419cef43a",
          "blockNumber": "0x2be2af4",
          "blockTimestamp": "0x69abd840",
          "transactionHash": "0xb5dc08d2cb6b2eb664d70e9b53a9e95555b85f6e9a97a7b7878506b5326b67cd",
          "transactionIndex": "0x4",
          "logIndex": "0x3",
          "removed": false
        },
        {
          "address": "0x00b036b58a818b1bc34d502d3fe730db729e62ac",
          "topics": [
            "0x40e9cecb9f5f1f1c5b9c97dec2917b7ee92e57ba5563708daca94dd84ad7112f",
            "0x6306d23fb9166d9dbfd141be059ed4a0a700dcbfba401736f09cc998b23cb2f3",
            "0x0000000000000000000000009cd2b0a732dd5e023a5539921e0fd1c30e198dba"
          ],
          "data": "0xfffffffffffffffffffffffffffffffffffffffffffffffffe9cba87a27600000000000000000000000000000000000000000000000000000147f399e33670760000000000000000000000000000000000000000f62ea80dc944cd9270659fc3000000000000000000000000000000000000000000000004563918244f400000fffffffffffffffffffffffffffffffffffffffffffffffffffffffffffffcf10000000000000000000000000000000000000000000000000000000000000bb8",
          "blockHash": "0x5a86355cb61e2b8f303f0c025125f813e989e2c940c96e72e25338c419cef43a",
          "blockNumber": "0x2be2af4",
          "blockTimestamp": "0x69abd840",
          "transactionHash": "0xb5dc08d2cb6b2eb664d70e9b53a9e95555b85f6e9a97a7b7878506b5326b67cd",
          "transactionIndex": "0x4",
          "logIndex": "0x4",
          "removed": false
        },
        {
          "address": "0x0ee3e3c313cd51e3c3b09e9831c1a84dfe89cc48",
          "topics": [
            "0xddf252ad1be2c89b69c2b068fc378daa952ba7f163c4a11628f55a4df523b3ef",
            "0x0000000000000000000000004b992f2fbf714c0fcbb23bac5130ace48cad00cd",
            "0x00000000000000000000000000b036b58a818b1bc34d502d3fe730db729e62ac"
          ],
          "data": "0x000000000000000000000000000000000000000000000000016345785d8a0000",
          "blockHash": "0x5a86355cb61e2b8f303f0c025125f813e989e2c940c96e72e25338c419cef43a",
          "blockNumber": "0x2be2af4",
          "blockTimestamp": "0x69abd840",
          "transactionHash": "0xb5dc08d2cb6b2eb664d70e9b53a9e95555b85f6e9a97a7b7878506b5326b67cd",
          "transactionIndex": "0x4",
          "logIndex": "0x5",
          "removed": false
        },
        {
          "address": "0x180896366174318f5bd64d8320576a488400115a",
          "topics": [
            "0xddf252ad1be2c89b69c2b068fc378daa952ba7f163c4a11628f55a4df523b3ef",
            "0x00000000000000000000000000b036b58a818b1bc34d502d3fe730db729e62ac",
            "0x0000000000000000000000004b992f2fbf714c0fcbb23bac5130ace48cad00cd"
          ],
          "data": "0x0000000000000000000000000000000000000000000000000147f399e3367076",
          "blockHash": "0x5a86355cb61e2b8f303f0c025125f813e989e2c940c96e72e25338c419cef43a",
          "blockNumber": "0x2be2af4",
          "blockTimestamp": "0x69abd840",
          "transactionHash": "0xb5dc08d2cb6b2eb664d70e9b53a9e95555b85f6e9a97a7b7878506b5326b67cd",
          "transactionIndex": "0x4",
          "logIndex": "0x6",
          "removed": false
        }
      ],
      "logsBloom": "0x0000000000000000000200000000000000000000400000000000010000000000008000000000000000000000000000040400000204100001000000000000000000000000000002002000000900000000000000000000002000010001000000000000000000000000000000000002400000000000040040000004001000000000000000008000000000000010000810000000000000000000000000000000000000000008000020000000000000001000000008000000002000000000000000000000000a000000000000000000000000000000000000000000000000000000000000000000000000004000000000000000000000000002000000000200400010",
      "type": "0x2",
      "transactionHash": "0xb5dc08d2cb6b2eb664d70e9b53a9e95555b85f6e9a97a7b7878506b5326b67cd",
      "transactionIndex": "0x4",
      "blockHash": "0x5a86355cb61e2b8f303f0c025125f813e989e2c940c96e72e25338c419cef43a",
      "blockNumber": "0x2be2af4",
      "gasUsed": "0x2f7c2",
      "effectiveGasPrice": "0x7a121",
      "blobGasUsed": "0x11f80",
      "from": "0x4b992f2fbf714c0fcbb23bac5130ace48cad00cd",
      "to": "0x9cd2b0a732dd5e023a5539921e0fd1c30e198dba",
      "contractAddress": null,
      "daFootprintGasScalar": "0x190",
      "l1BaseFeeScalar": "0x7d0",
      "l1BlobBaseFee": "0x4480d",
      "l1BlobBaseFeeScalar": "0xdbba0",
      "l1Fee": "0x4cdaa10",
      "l1GasPrice": "0x584e7c",
      "l1GasUsed": "0xb81"
    },
    {
      "status": "0x1",
      "cumulativeGasUsed": "0x571e6",
      "logs": [
        {
          "address": "0x9146bf7b6e8ef3508ae74ec9c0d3e2d042d080c0",
          "topics": [
            "0x8a2aada980fd130ab9983cba87ddda45955dd701ce544eea6d5af3101d9fc5df",
            "0x6306d23fb9166d9dbfd141be059ed4a0a700dcbfba401736f09cc998b23cb2f3",
            "0x0000000000000000000000009cd2b0a732dd5e023a5539921e0fd1c30e198dba"
          ],
          "data": "0x000000000000000000000000000000000000000000000000000000000000000200000000000000000000000000000000000000000000000003782dace9d90000000000000000000000000000000000000000000000000000000000000000270f00000000000000000000000000000000000000000000000029a2241af62c00000000000000000000000000000000000000000000000000000000000000002710",
          "blockHash": "0xfca61500796ef9497b11b1e206b60c8cbe66593bdfc75487449055e5d551390f",
          "blockNumber": "0x2be2af8",
          "blockTimestamp": "0x69abd844",
          "transactionHash": "0x6ed262119a90cc07db6f4eac8d5cf5f081ffc1185718adf8fb21371d1f07f864",
          "transactionIndex": "0x3",
          "logIndex": "0x1",
          "removed": false
        },
        {
          "address": "0x034e2bf5c2c91788e7e85170644c4fb79073888d",
          "topics": [
            "0x4f5c2d00887d0161c4eaef5a7bafe851adfdb55c54b1db5e8a66aee75ae667ff",
            "0x6306d23fb9166d9dbfd141be059ed4a0a700dcbfba401736f09cc998b23cb2f3"
          ],
          "data": "0x000000000000000000000000000000000000000000000000000000000000000000000000000000000000000000000000000000000000000000000000000000000000000000000000000000000000000000000000000000000000000000000000",
          "blockHash": "0xfca61500796ef9497b11b1e206b60c8cbe66593bdfc75487449055e5d551390f",
          "blockNumber": "0x2be2af8",
          "blockTimestamp": "0x69abd844",
          "transactionHash": "0x6ed262119a90cc07db6f4eac8d5cf5f081ffc1185718adf8fb21371d1f07f864",
          "transactionIndex": "0x3",
          "logIndex": "0x2",
          "removed": false
        },
        {
          "address": "0x00b036b58a818b1bc34d502d3fe730db729e62ac",
          "topics": [
            "0x40e9cecb9f5f1f1c5b9c97dec2917b7ee92e57ba5563708daca94dd84ad7112f",
            "0x6306d23fb9166d9dbfd141be059ed4a0a700dcbfba401736f09cc998b23cb2f3",
            "0x0000000000000000000000009cd2b0a732dd5e023a5539921e0fd1c30e198dba"
          ],
          "data": "0xfffffffffffffffffffffffffffffffffffffffffffffffffc87d253162700000000000000000000000000000000000000000000000000000330733bc3c3bd1f0000000000000000000000000000000000000000f57265583e56fe793596982c000000000000000000000000000000000000000000000004563918244f400000fffffffffffffffffffffffffffffffffffffffffffffffffffffffffffffcb60000000000000000000000000000000000000000000000000000000000000bb8",
          "blockHash": "0xfca61500796ef9497b11b1e206b60c8cbe66593bdfc75487449055e5d551390f",
          "blockNumber": "0x2be2af8",
          "blockTimestamp": "0x69abd844",
          "transactionHash": "0x6ed262119a90cc07db6f4eac8d5cf5f081ffc1185718adf8fb21371d1f07f864",
          "transactionIndex": "0x3",
          "logIndex": "0x3",
          "removed": false
        },
        {
          "address": "0x0ee3e3c313cd51e3c3b09e9831c1a84dfe89cc48",
          "topics": [
            "0xddf252ad1be2c89b69c2b068fc378daa952ba7f163c4a11628f55a4df523b3ef",
            "0x0000000000000000000000004b992f2fbf714c0fcbb23bac5130ace48cad00cd",
            "0x00000000000000000000000000b036b58a818b1bc34d502d3fe730db729e62ac"
          ],
          "data": "0x00000000000000000000000000000000000000000000000003782dace9d90000",
          "blockHash": "0xfca61500796ef9497b11b1e206b60c8cbe66593bdfc75487449055e5d551390f",
          "blockNumber": "0x2be2af8",
          "blockTimestamp": "0x69abd844",
          "transactionHash": "0x6ed262119a90cc07db6f4eac8d5cf5f081ffc1185718adf8fb21371d1f07f864",
          "transactionIndex": "0x3",
          "logIndex": "0x4",
          "removed": false
        },
        {
          "address": "0x180896366174318f5bd64d8320576a488400115a",
          "topics": [
            "0xddf252ad1be2c89b69c2b068fc378daa952ba7f163c4a11628f55a4df523b3ef",
            "0x00000000000000000000000000b036b58a818b1bc34d502d3fe730db729e62ac",
            "0x0000000000000000000000004b992f2fbf714c0fcbb23bac5130ace48cad00cd"
          ],
          "data": "0x0000000000000000000000000000000000000000000000000330733bc3c3bd1f",
          "blockHash": "0xfca61500796ef9497b11b1e206b60c8cbe66593bdfc75487449055e5d551390f",
          "blockNumber": "0x2be2af8",
          "blockTimestamp": "0x69abd844",
          "transactionHash": "0x6ed262119a90cc07db6f4eac8d5cf5f081ffc1185718adf8fb21371d1f07f864",
          "transactionIndex": "0x3",
          "logIndex": "0x5",
          "removed": false
        }
      ],
      "logsBloom": "0x0000000000000000000200000000000000000000400000000000010000000000008000000000000000000000000000040400000204100001000000000000000000000000000002002000000900000000000000000000002000010001000000000000000000000000000000000002400000000000040040000004001000000000000000008000000000000010000810000000000000000000000000000000000000000008000020000000000000001000000008000000002000000000000000000000000a000000000000000000000000000000000000000000000000000000000000000000000000004000000000000000000000000002000000000200400010",
      "type": "0x2",
      "transactionHash": "0x6ed262119a90cc07db6f4eac8d5cf5f081ffc1185718adf8fb21371d1f07f864",
      "transactionIndex": "0x3",
      "blockHash": "0xfca61500796ef9497b11b1e206b60c8cbe66593bdfc75487449055e5d551390f",
      "blockNumber": "0x2be2af8",
      "gasUsed": "0x2f7be",
      "effectiveGasPrice": "0x7a121",
      "blobGasUsed": "0x11f80",
      "from": "0x4b992f2fbf714c0fcbb23bac5130ace48cad00cd",
      "to": "0x9cd2b0a732dd5e023a5539921e0fd1c30e198dba",
      "contractAddress": null,
      "daFootprintGasScalar": "0x190",
      "l1BaseFeeScalar": "0x7d0",
      "l1BlobBaseFee": "0x45891",
      "l1BlobBaseFeeScalar": "0xdbba0",
      "l1Fee": "0x4cf999e",
      "l1GasPrice": "0x56d219",
      "l1GasUsed": "0xb81"
    },
    {
      "status": "0x1",
      "cumulativeGasUsed": "0xd05b3",
      "logs": [
        {
          "address": "0x9146bf7b6e8ef3508ae74ec9c0d3e2d042d080c0",
          "topics": [
            "0x8a2aada980fd130ab9983cba87ddda45955dd701ce544eea6d5af3101d9fc5df",
            "0x6306d23fb9166d9dbfd141be059ed4a0a700dcbfba401736f09cc998b23cb2f3",
            "0x0000000000000000000000009cd2b0a732dd5e023a5539921e0fd1c30e198dba"
          ],
          "data": "0x000000000000000000000000000000000000000000000000000000000000000200000000000000000000000000000000000000000000000006f05b59d3b20000000000000000000000000000000000000000000000000000000000000000270f00000000000000000000000000000000000000000000000029a2241af62c00000000000000000000000000000000000000000000000000000000000000002710",
          "blockHash": "0x9d79326e3b9a0c8c1e73a829ddc8abb98e7bae68bad8a537f46aed775ede8e98",
          "blockNumber": "0x2be2afa",
          "blockTimestamp": "0x69abd846",
          "transactionHash": "0x5d4702438ea61459d3eb1a3739418312b913cedf42a706af307fa4d08f86ff34",
          "transactionIndex": "0x8",
          "logIndex": "0x8",
          "removed": false
        },
        {
          "address": "0x034e2bf5c2c91788e7e85170644c4fb79073888d",
          "topics": [
            "0x4f5c2d00887d0161c4eaef5a7bafe851adfdb55c54b1db5e8a66aee75ae667ff",
            "0x6306d23fb9166d9dbfd141be059ed4a0a700dcbfba401736f09cc998b23cb2f3"
          ],
          "data": "0x000000000000000000000000000000000000000000000000000000000000000000000000000000000000000000000000000000000000000000000000000000000000000000000000000000000000000000000000000000000000000000000000",
          "blockHash": "0x9d79326e3b9a0c8c1e73a829ddc8abb98e7bae68bad8a537f46aed775ede8e98",
          "blockNumber": "0x2be2afa",
          "blockTimestamp": "0x69abd846",
          "transactionHash": "0x5d4702438ea61459d3eb1a3739418312b913cedf42a706af307fa4d08f86ff34",
          "transactionIndex": "0x8",
          "logIndex": "0x9",
          "removed": false
        },
        {
          "address": "0x00b036b58a818b1bc34d502d3fe730db729e62ac",
          "topics": [
            "0x40e9cecb9f5f1f1c5b9c97dec2917b7ee92e57ba5563708daca94dd84ad7112f",
            "0x6306d23fb9166d9dbfd141be059ed4a0a700dcbfba401736f09cc998b23cb2f3",
            "0x0000000000000000000000009cd2b0a732dd5e023a5539921e0fd1c30e198dba"
          ],
          "data": "0xfffffffffffffffffffffffffffffffffffffffffffffffff90fa4a62c4e000000000000000000000000000000000000000000000000000006525a941c0e30d40000000000000000000000000000000000000000f3fd3a98ba4f1502f74159bf000000000000000000000000000000000000000000000004563918244f400000fffffffffffffffffffffffffffffffffffffffffffffffffffffffffffffc3e0000000000000000000000000000000000000000000000000000000000000bb8",
          "blockHash": "0x9d79326e3b9a0c8c1e73a829ddc8abb98e7bae68bad8a537f46aed775ede8e98",
          "blockNumber": "0x2be2afa",
          "blockTimestamp": "0x69abd846",
          "transactionHash": "0x5d4702438ea61459d3eb1a3739418312b913cedf42a706af307fa4d08f86ff34",
          "transactionIndex": "0x8",
          "logIndex": "0xa",
          "removed": false
        },
        {
          "address": "0x0ee3e3c313cd51e3c3b09e9831c1a84dfe89cc48",
          "topics": [
            "0xddf252ad1be2c89b69c2b068fc378daa952ba7f163c4a11628f55a4df523b3ef",
            "0x0000000000000000000000004b992f2fbf714c0fcbb23bac5130ace48cad00cd",
            "0x00000000000000000000000000b036b58a818b1bc34d502d3fe730db729e62ac"
          ],
          "data": "0x00000000000000000000000000000000000000000000000006f05b59d3b20000",
          "blockHash": "0x9d79326e3b9a0c8c1e73a829ddc8abb98e7bae68bad8a537f46aed775ede8e98",
          "blockNumber": "0x2be2afa",
          "blockTimestamp": "0x69abd846",
          "transactionHash": "0x5d4702438ea61459d3eb1a3739418312b913cedf42a706af307fa4d08f86ff34",
          "transactionIndex": "0x8",
          "logIndex": "0xb",
          "removed": false
        },
        {
          "address": "0x180896366174318f5bd64d8320576a488400115a",
          "topics": [
            "0xddf252ad1be2c89b69c2b068fc378daa952ba7f163c4a11628f55a4df523b3ef",
            "0x00000000000000000000000000b036b58a818b1bc34d502d3fe730db729e62ac",
            "0x0000000000000000000000004b992f2fbf714c0fcbb23bac5130ace48cad00cd"
          ],
          "data": "0x00000000000000000000000000000000000000000000000006525a941c0e30d4",
          "blockHash": "0x9d79326e3b9a0c8c1e73a829ddc8abb98e7bae68bad8a537f46aed775ede8e98",
          "blockNumber": "0x2be2afa",
          "blockTimestamp": "0x69abd846",
          "transactionHash": "0x5d4702438ea61459d3eb1a3739418312b913cedf42a706af307fa4d08f86ff34",
          "transactionIndex": "0x8",
          "logIndex": "0xc",
          "removed": false
        }
      ],
      "logsBloom": "0x0000000000000000000200000000000000000000400000000000010000000000008000000000000000000000000000040400000204100001000000000000000000000000000002002000000900000000000000000000002000010001000000000000000000000000000000000002400000000000040040000004001000000000000000008000000000000010000810000000000000000000000000000000000000000008000020000000000000001000000008000000002000000000000000000000000a000000000000000000000000000000000000000000000000000000000000000000000000004000000000000000000000000002000000000200400010",
      "type": "0x2",
      "transactionHash": "0x5d4702438ea61459d3eb1a3739418312b913cedf42a706af307fa4d08f86ff34",
      "transactionIndex": "0x8",
      "blockHash": "0x9d79326e3b9a0c8c1e73a829ddc8abb98e7bae68bad8a537f46aed775ede8e98",
      "blockNumber": "0x2be2afa",
      "gasUsed": "0x2f7a2",
      "effectiveGasPrice": "0x7a121",
      "blobGasUsed": "0x11f80",
      "from": "0x4b992f2fbf714c0fcbb23bac5130ace48cad00cd",
      "to": "0x9cd2b0a732dd5e023a5539921e0fd1c30e198dba",
      "contractAddress": null,
      "daFootprintGasScalar": "0x190",
      "l1BaseFeeScalar": "0x7d0",
      "l1BlobBaseFee": "0x45891",
      "l1BlobBaseFeeScalar": "0xdbba0",
      "l1Fee": "0x4cf999e",
      "l1GasPrice": "0x56d219",
      "l1GasUsed": "0xb81"
    },
    {
      "status": "0x1",
      "cumulativeGasUsed": "0x6df1b",
      "logs": [
        {
          "address": "0x9146bf7b6e8ef3508ae74ec9c0d3e2d042d080c0",
          "topics": [
            "0x8a2aada980fd130ab9983cba87ddda45955dd701ce544eea6d5af3101d9fc5df",
            "0x6306d23fb9166d9dbfd141be059ed4a0a700dcbfba401736f09cc998b23cb2f3",
            "0x0000000000000000000000009cd2b0a732dd5e023a5539921e0fd1c30e198dba"
          ],
          "data": "0x00000000000000000000000000000000000000000000000000000000000000020000000000000000000000000000000000000000000000000a688906bd8b0000000000000000000000000000000000000000000000000000000000000000270f00000000000000000000000000000000000000000000000029a2241af62c00000000000000000000000000000000000000000000000000000000000000002710",
          "blockHash": "0xf92a4add478c74b323b728b374b3b5445382c687a21f58990c942c8ad4fd2432",
          "blockNumber": "0x2be2afc",
          "blockTimestamp": "0x69abd848",
          "transactionHash": "0x7fe0e6e8011e3a59901793e548682250a78b9c7e6140aa4615c49a2847dcc12a",
          "transactionIndex": "0x4",
          "logIndex": "0x2",
          "removed": false
        },
        {
          "address": "0x034e2bf5c2c91788e7e85170644c4fb79073888d",
          "topics": [
            "0x4f5c2d00887d0161c4eaef5a7bafe851adfdb55c54b1db5e8a66aee75ae667ff",
            "0x6306d23fb9166d9dbfd141be059ed4a0a700dcbfba401736f09cc998b23cb2f3"
          ],
          "data": "0x000000000000000000000000000000000000000000000000000000000000000000000000000000000000000000000000000000000000000000000000000000000000000000000000000000000000000000000000000000000000000000000000",
          "blockHash": "0xf92a4add478c74b323b728b374b3b5445382c687a21f58990c942c8ad4fd2432",
          "blockNumber": "0x2be2afc",
          "blockTimestamp": "0x69abd848",
          "transactionHash": "0x7fe0e6e8011e3a59901793e548682250a78b9c7e6140aa4615c49a2847dcc12a",
          "transactionIndex": "0x4",
          "logIndex": "0x3",
          "removed": false
        },
        {
          "address": "0x00b036b58a818b1bc34d502d3fe730db729e62ac",
          "topics": [
            "0x40e9cecb9f5f1f1c5b9c97dec2917b7ee92e57ba5563708daca94dd84ad7112f",
            "0x6306d23fb9166d9dbfd141be059ed4a0a700dcbfba401736f09cc998b23cb2f3",
            "0x0000000000000000000000009cd2b0a732dd5e023a5539921e0fd1c30e198dba"
          ],
          "data": "0xfffffffffffffffffffffffffffffffffffffffffffffffff59776f9427500000000000000000000000000000000000000000000000000000957ce8cffcd8ee20000000000000000000000000000000000000000f1d5b73db029973ba0b1124f000000000000000000000000000000000000000000000004563918244f400000fffffffffffffffffffffffffffffffffffffffffffffffffffffffffffffb8d0000000000000000000000000000000000000000000000000000000000000bb8",
          "blockHash": "0xf92a4add478c74b323b728b374b3b5445382c687a21f58990c942c8ad4fd2432",
          "blockNumber": "0x2be2afc",
          "blockTimestamp": "0x69abd848",
          "transactionHash": "0x7fe0e6e8011e3a59901793e548682250a78b9c7e6140aa4615c49a2847dcc12a",
          "transactionIndex": "0x4",
          "logIndex": "0x4",
          "removed": false
        },
        {
          "address": "0x0ee3e3c313cd51e3c3b09e9831c1a84dfe89cc48",
          "topics": [
            "0xddf252ad1be2c89b69c2b068fc378daa952ba7f163c4a11628f55a4df523b3ef",
            "0x0000000000000000000000004b992f2fbf714c0fcbb23bac5130ace48cad00cd",
            "0x00000000000000000000000000b036b58a818b1bc34d502d3fe730db729e62ac"
          ],
          "data": "0x0000000000000000000000000000000000000000000000000a688906bd8b0000",
          "blockHash": "0xf92a4add478c74b323b728b374b3b5445382c687a21f58990c942c8ad4fd2432",
          "blockNumber": "0x2be2afc",
          "blockTimestamp": "0x69abd848",
          "transactionHash": "0x7fe0e6e8011e3a59901793e548682250a78b9c7e6140aa4615c49a2847dcc12a",
          "transactionIndex": "0x4",
          "logIndex": "0x5",
          "removed": false
        },
        {
          "address": "0x180896366174318f5bd64d8320576a488400115a",
          "topics": [
            "0xddf252ad1be2c89b69c2b068fc378daa952ba7f163c4a11628f55a4df523b3ef",
            "0x00000000000000000000000000b036b58a818b1bc34d502d3fe730db729e62ac",
            "0x0000000000000000000000004b992f2fbf714c0fcbb23bac5130ace48cad00cd"
          ],
          "data": "0x0000000000000000000000000000000000000000000000000957ce8cffcd8ee2",
          "blockHash": "0xf92a4add478c74b323b728b374b3b5445382c687a21f58990c942c8ad4fd2432",
          "blockNumber": "0x2be2afc",
          "blockTimestamp": "0x69abd848",
          "transactionHash": "0x7fe0e6e8011e3a59901793e548682250a78b9c7e6140aa4615c49a2847dcc12a",
          "transactionIndex": "0x4",
          "logIndex": "0x6",
          "removed": false
        }
      ],
      "logsBloom": "0x0000000000000000000200000000000000000000400000000000010000000000008000000000000000000000000000040400000204100001000000000000000000000000000002002000000900000000000000000000002000010001000000000000000000000000000000000002400000000000040040000004001000000000000000008000000000000010000810000000000000000000000000000000000000000008000020000000000000001000000008000000002000000000000000000000000a000000000000000000000000000000000000000000000000000000000000000000000000004000000000000000000000000002000000000200400010",
      "type": "0x2",
      "transactionHash": "0x7fe0e6e8011e3a59901793e548682250a78b9c7e6140aa4615c49a2847dcc12a",
      "transactionIndex": "0x4",
      "blockHash": "0xf92a4add478c74b323b728b374b3b5445382c687a21f58990c942c8ad4fd2432",
      "blockNumber": "0x2be2afc",
      "gasUsed": "0x2f4c1",
      "effectiveGasPrice": "0x7a121",
      "blobGasUsed": "0x11f80",
      "from": "0x4b992f2fbf714c0fcbb23bac5130ace48cad00cd",
      "to": "0x9cd2b0a732dd5e023a5539921e0fd1c30e198dba",
      "contractAddress": null,
      "daFootprintGasScalar": "0x190",
      "l1BaseFeeScalar": "0x7d0",
      "l1BlobBaseFee": "0x45891",
      "l1BlobBaseFeeScalar": "0xdbba0",
      "l1Fee": "0x4cf999e",
      "l1GasPrice": "0x56d219",
      "l1GasUsed": "0xb81"
    },
    {
      "status": "0x1",
      "cumulativeGasUsed": "0x8526a",
      "logs": [
        {
          "address": "0x9146bf7b6e8ef3508ae74ec9c0d3e2d042d080c0",
          "topics": [
            "0x8a2aada980fd130ab9983cba87ddda45955dd701ce544eea6d5af3101d9fc5df",
            "0x6306d23fb9166d9dbfd141be059ed4a0a700dcbfba401736f09cc998b23cb2f3",
            "0x0000000000000000000000009cd2b0a732dd5e023a5539921e0fd1c30e198dba"
          ],
          "data": "0x00000000000000000000000000000000000000000000000000000000000000020000000000000000000000000000000000000000000000000de0b6b3a7640000000000000000000000000000000000000000000000000000000000000000270f00000000000000000000000000000000000000000000000029a2241af62c00000000000000000000000000000000000000000000000000000000000000002710",
          "blockHash": "0x3f9b4dcda5e9b2ff5a746d79592bbe0fd109ca1171d9c5f15632f17f5d25f37f",
          "blockNumber": "0x2be2aff",
          "blockTimestamp": "0x69abd84b",
          "transactionHash": "0xe200523b98cefad694e751e404e0bfbdaec449eb329b5b316f96531ee32a79c1",
          "transactionIndex": "0x5",
          "logIndex": "0x3",
          "removed": false
        },
        {
          "address": "0x034e2bf5c2c91788e7e85170644c4fb79073888d",
          "topics": [
            "0x4f5c2d00887d0161c4eaef5a7bafe851adfdb55c54b1db5e8a66aee75ae667ff",
            "0x6306d23fb9166d9dbfd141be059ed4a0a700dcbfba401736f09cc998b23cb2f3"
          ],
          "data": "0x000000000000000000000000000000000000000000000000000000000000000000000000000000000000000000000000000000000000000000000000000000000000000000000000000000000000000000000000000000000000000000000000",
          "blockHash": "0x3f9b4dcda5e9b2ff5a746d79592bbe0fd109ca1171d9c5f15632f17f5d25f37f",
          "blockNumber": "0x2be2aff",
          "blockTimestamp": "0x69abd84b",
          "transactionHash": "0xe200523b98cefad694e751e404e0bfbdaec449eb329b5b316f96531ee32a79c1",
          "transactionIndex": "0x5",
          "logIndex": "0x4",
          "removed": false
        },
        {
          "address": "0x00b036b58a818b1bc34d502d3fe730db729e62ac",
          "topics": [
            "0x40e9cecb9f5f1f1c5b9c97dec2917b7ee92e57ba5563708daca94dd84ad7112f",
            "0x6306d23fb9166d9dbfd141be059ed4a0a700dcbfba401736f09cc998b23cb2f3",
            "0x0000000000000000000000009cd2b0a732dd5e023a5539921e0fd1c30e198dba"
          ],
          "data": "0xfffffffffffffffffffffffffffffffffffffffffffffffff21f494c589c00000000000000000000000000000000000000000000000000000c3423151634f7dd0000000000000000000000000000000000000000ef0556bd88d9e1244daa8ed1000000000000000000000000000000000000000000000004563918244f400000fffffffffffffffffffffffffffffffffffffffffffffffffffffffffffffaa30000000000000000000000000000000000000000000000000000000000000bb8",
          "blockHash": "0x3f9b4dcda5e9b2ff5a746d79592bbe0fd109ca1171d9c5f15632f17f5d25f37f",
          "blockNumber": "0x2be2aff",
          "blockTimestamp": "0x69abd84b",
          "transactionHash": "0xe200523b98cefad694e751e404e0bfbdaec449eb329b5b316f96531ee32a79c1",
          "transactionIndex": "0x5",
          "logIndex": "0x5",
          "removed": false
        },
        {
          "address": "0x0ee3e3c313cd51e3c3b09e9831c1a84dfe89cc48",
          "topics": [
            "0xddf252ad1be2c89b69c2b068fc378daa952ba7f163c4a11628f55a4df523b3ef",
            "0x0000000000000000000000004b992f2fbf714c0fcbb23bac5130ace48cad00cd",
            "0x00000000000000000000000000b036b58a818b1bc34d502d3fe730db729e62ac"
          ],
          "data": "0x0000000000000000000000000000000000000000000000000de0b6b3a7640000",
          "blockHash": "0x3f9b4dcda5e9b2ff5a746d79592bbe0fd109ca1171d9c5f15632f17f5d25f37f",
          "blockNumber": "0x2be2aff",
          "blockTimestamp": "0x69abd84b",
          "transactionHash": "0xe200523b98cefad694e751e404e0bfbdaec449eb329b5b316f96531ee32a79c1",
          "transactionIndex": "0x5",
          "logIndex": "0x6",
          "removed": false
        },
        {
          "address": "0x180896366174318f5bd64d8320576a488400115a",
          "topics": [
            "0xddf252ad1be2c89b69c2b068fc378daa952ba7f163c4a11628f55a4df523b3ef",
            "0x00000000000000000000000000b036b58a818b1bc34d502d3fe730db729e62ac",
            "0x0000000000000000000000004b992f2fbf714c0fcbb23bac5130ace48cad00cd"
          ],
          "data": "0x0000000000000000000000000000000000000000000000000c3423151634f7dd",
          "blockHash": "0x3f9b4dcda5e9b2ff5a746d79592bbe0fd109ca1171d9c5f15632f17f5d25f37f",
          "blockNumber": "0x2be2aff",
          "blockTimestamp": "0x69abd84b",
          "transactionHash": "0xe200523b98cefad694e751e404e0bfbdaec449eb329b5b316f96531ee32a79c1",
          "transactionIndex": "0x5",
          "logIndex": "0x7",
          "removed": false
        }
      ],
      "logsBloom": "0x0000000000000000000200000000000000000000400000000000010000000000008000000000000000000000000000040400000204100001000000000000000000000000000002002000000900000000000000000000002000010001000000000000000000000000000000000002400000000000040040000004001000000000000000008000000000000010000810000000000000000000000000000000000000000008000020000000000000001000000008000000002000000000000000000000000a000000000000000000000000000000000000000000000000000000000000000000000000004000000000000000000000000002000000000200400010",
      "type": "0x2",
      "transactionHash": "0xe200523b98cefad694e751e404e0bfbdaec449eb329b5b316f96531ee32a79c1",
      "transactionIndex": "0x5",
      "blockHash": "0x3f9b4dcda5e9b2ff5a746d79592bbe0fd109ca1171d9c5f15632f17f5d25f37f",
      "blockNumber": "0x2be2aff",
      "gasUsed": "0x2f7de",
      "effectiveGasPrice": "0x7a121",
      "blobGasUsed": "0x11f80",
      "from": "0x4b992f2fbf714c0fcbb23bac5130ace48cad00cd",
      "to": "0x9cd2b0a732dd5e023a5539921e0fd1c30e198dba",
      "contractAddress": null,
      "daFootprintGasScalar": "0x190",
      "l1BaseFeeScalar": "0x7d0",
      "l1BlobBaseFee": "0x45891",
      "l1BlobBaseFeeScalar": "0xdbba0",
      "l1Fee": "0x4cf999e",
      "l1GasPrice": "0x56d219",
      "l1GasUsed": "0xb81"
    },
    {
      "status": "0x1",
      "cumulativeGasUsed": "0x571ea",
      "logs": [
        {
          "address": "0x9146bf7b6e8ef3508ae74ec9c0d3e2d042d080c0",
          "topics": [
            "0x8a2aada980fd130ab9983cba87ddda45955dd701ce544eea6d5af3101d9fc5df",
            "0x6306d23fb9166d9dbfd141be059ed4a0a700dcbfba401736f09cc998b23cb2f3",
            "0x0000000000000000000000009cd2b0a732dd5e023a5539921e0fd1c30e198dba"
          ],
          "data": "0x00000000000000000000000000000000000000000000000000000000000000020000000000000000000000000000000000000000000000001bc16d674ec80000000000000000000000000000000000000000000000000000000000000000270f00000000000000000000000000000000000000000000000029a2241af62c00000000000000000000000000000000000000000000000000000000000000002710",
          "blockHash": "0x90bbefca7f65b57650d1d1fa1f08a79d280ee0d12c4cdb2470922171c80d8326",
          "blockNumber": "0x2be2b01",
          "blockTimestamp": "0x69abd84d",
          "transactionHash": "0xbe3c913b3a5e1f1cddc5997f022b83d05e9c1f6cb3c87fe50ae00ca1b8de900c",
          "transactionIndex": "0x3",
          "logIndex": "0x1",
          "removed": false
        },
        {
          "address": "0x034e2bf5c2c91788e7e85170644c4fb79073888d",
          "topics": [
            "0x4f5c2d00887d0161c4eaef5a7bafe851adfdb55c54b1db5e8a66aee75ae667ff",
            "0x6306d23fb9166d9dbfd141be059ed4a0a700dcbfba401736f09cc998b23cb2f3"
          ],
          "data": "0x000000000000000000000000000000000000000000000000000000000000000000000000000000000000000000000000000000000000000000000000000000000000000000000000000000000000000000000000000000000000000000000000",
          "blockHash": "0x90bbefca7f65b57650d1d1fa1f08a79d280ee0d12c4cdb2470922171c80d8326",
          "blockNumber": "0x2be2b01",
          "blockTimestamp": "0x69abd84d",
          "transactionHash": "0xbe3c913b3a5e1f1cddc5997f022b83d05e9c1f6cb3c87fe50ae00ca1b8de900c",
          "transactionIndex": "0x3",
          "logIndex": "0x2",
          "removed": false
        },
        {
          "address": "0x00b036b58a818b1bc34d502d3fe730db729e62ac",
          "topics": [
            "0x40e9cecb9f5f1f1c5b9c97dec2917b7ee92e57ba5563708daca94dd84ad7112f",
            "0x6306d23fb9166d9dbfd141be059ed4a0a700dcbfba401736f09cc998b23cb2f3",
            "0x0000000000000000000000009cd2b0a732dd5e023a5539921e0fd1c30e198dba"
          ],
          "data": "0xffffffffffffffffffffffffffffffffffffffffffffffffe43e9298b138000000000000000000000000000000000000000000000000000017931f04042063200000000000000000000000000000000000000000e995bc112ca0e16407b506bd000000000000000000000000000000000000000000000004563918244f400000fffffffffffffffffffffffffffffffffffffffffffffffffffffffffffff8d70000000000000000000000000000000000000000000000000000000000000bb8",
          "blockHash": "0x90bbefca7f65b57650d1d1fa1f08a79d280ee0d12c4cdb2470922171c80d8326",
          "blockNumber": "0x2be2b01",
          "blockTimestamp": "0x69abd84d",
          "transactionHash": "0xbe3c913b3a5e1f1cddc5997f022b83d05e9c1f6cb3c87fe50ae00ca1b8de900c",
          "transactionIndex": "0x3",
          "logIndex": "0x3",
          "removed": false
        },
        {
          "address": "0x0ee3e3c313cd51e3c3b09e9831c1a84dfe89cc48",
          "topics": [
            "0xddf252ad1be2c89b69c2b068fc378daa952ba7f163c4a11628f55a4df523b3ef",
            "0x0000000000000000000000004b992f2fbf714c0fcbb23bac5130ace48cad00cd",
            "0x00000000000000000000000000b036b58a818b1bc34d502d3fe730db729e62ac"
          ],
          "data": "0x0000000000000000000000000000000000000000000000001bc16d674ec80000",
          "blockHash": "0x90bbefca7f65b57650d1d1fa1f08a79d280ee0d12c4cdb2470922171c80d8326",
          "blockNumber": "0x2be2b01",
          "blockTimestamp": "0x69abd84d",
          "transactionHash": "0xbe3c913b3a5e1f1cddc5997f022b83d05e9c1f6cb3c87fe50ae00ca1b8de900c",
          "transactionIndex": "0x3",
          "logIndex": "0x4",
          "removed": false
        },
        {
          "address": "0x180896366174318f5bd64d8320576a488400115a",
          "topics": [
            "0xddf252ad1be2c89b69c2b068fc378daa952ba7f163c4a11628f55a4df523b3ef",
            "0x00000000000000000000000000b036b58a818b1bc34d502d3fe730db729e62ac",
            "0x0000000000000000000000004b992f2fbf714c0fcbb23bac5130ace48cad00cd"
          ],
          "data": "0x00000000000000000000000000000000000000000000000017931f0404206320",
          "blockHash": "0x90bbefca7f65b57650d1d1fa1f08a79d280ee0d12c4cdb2470922171c80d8326",
          "blockNumber": "0x2be2b01",
          "blockTimestamp": "0x69abd84d",
          "transactionHash": "0xbe3c913b3a5e1f1cddc5997f022b83d05e9c1f6cb3c87fe50ae00ca1b8de900c",
          "transactionIndex": "0x3",
          "logIndex": "0x5",
          "removed": false
        }
      ],
      "logsBloom": "0x0000000000000000000200000000000000000000400000000000010000000000008000000000000000000000000000040400000204100001000000000000000000000000000002002000000900000000000000000000002000010001000000000000000000000000000000000002400000000000040040000004001000000000000000008000000000000010000810000000000000000000000000000000000000000008000020000000000000001000000008000000002000000000000000000000000a000000000000000000000000000000000000000000000000000000000000000000000000004000000000000000000000000002000000000200400010",
      "type": "0x2",
      "transactionHash": "0xbe3c913b3a5e1f1cddc5997f022b83d05e9c1f6cb3c87fe50ae00ca1b8de900c",
      "transactionIndex": "0x3",
      "blockHash": "0x90bbefca7f65b57650d1d1fa1f08a79d280ee0d12c4cdb2470922171c80d8326",
      "blockNumber": "0x2be2b01",
      "gasUsed": "0x2f7c2",
      "effectiveGasPrice": "0x7a121",
      "blobGasUsed": "0x11f80",
      "from": "0x4b992f2fbf714c0fcbb23bac5130ace48cad00cd",
      "to": "0x9cd2b0a732dd5e023a5539921e0fd1c30e198dba",
      "contractAddress": null,
      "daFootprintGasScalar": "0x190",
      "l1BaseFeeScalar": "0x7d0",
      "l1BlobBaseFee": "0x45891",
      "l1BlobBaseFeeScalar": "0xdbba0",
      "l1Fee": "0x4cf999e",
      "l1GasPrice": "0x56d219",
      "l1GasUsed": "0xb81"
    }
  ],
  "libraries": [],
  "pending": [],
  "returns": {},
  "timestamp": 1772869710206,
  "chain": 1301,
  "commit": "4831052"
}